:020000040800F2
:10000000000005208D100008E5040008E704000842
:10001000E9040008EB040008ED04000800000000FB
:10002000000000000000000000000000EF040008D5
:10003000F104000800000000F3040008F5040008C3
:10004000DD100008DD100008DD100008DD100008DC
:10005000DD100008DD100008DD100008DD100008CC
:10006000DD100008DD100008DD100008DD100008BC
:10007000DD100008DD100008DD100008DD100008AC
:10008000DD100008DD100008DD100008DD1000089C
:10009000DD100008DD100008DD100008DD1000088C
:1000A000DD100008DD100008DD100008DD1000087C
:1000B000DD100008DD100008DD100008DD1000086C
:1000C000DD100008DD100008DD100008DD1000085C
:1000D000DD100008DD100008DD100008DD1000084C
:1000E000DD100008DD100008DD100008DD1000083C
:1000F000DD100008DD100008DD100008DD1000082C
:10010000DD100008DD100008DD100008DD1000081B
:10011000DD100008DD100008DD100008DD1000080B
:10012000DD100008DD100008DD100008DD100008FB
:10013000DD100008DD100008DD100008DD100008EB
:10014000DD100008DD100008DD100008DD100008DB
:10015000DD100008DD100008DD100008DD100008CB
:10016000DD100008DD100008DD100008DD100008BB
:10017000DD100008DD100008DD10000800000000A0
:10018000DD100008DD100008DD100008DD1000089B
:10019000DD100008DD100008DD100008DD1000088B
:1001A000DD100008DD100008DD100008DD1000087B
:1001B000DD100008DD100008DD100008DD1000086B
:0801C000DD100008DD1000084D
:1001C80053B94AB9002908BF00281CBF4FF0FF31B6
:1001D8004FF0FF3000F0E2B8ADF1080C6DE904CE45
:1001E80000F0A8FFDDF804E0DDE9022304B0704761
:1001F80000F1340191E838009C46A6464CF8045DAD
:1002080090E8FF0FE54600BD90EC210B704700BF5A
:1002180080EC210B704700BF90EC200B704700BFAB
:1002280080EC200B704700BFD0EC200B704700BF5C
:10023800C0EC200B704700BFF0EC0201F0EC02119B
:10024800F0EC0221F0EC0231F0EC0241F0EC02514A
:10025800F0EC0261F0EC0271F0EC0281F0EC02913A
:10026800F0EC02A1F0EC02B1F0EC02C1F0EC02D12A
:10027800F0EC02E1F0EC02F1704700BFE0EC0201A3
:10028800E0EC0211E0EC0221E0EC0231E0EC02418A
:10029800E0EC0251E0EC0261E0EC0271E0EC02817A
:1002A800E0EC0291E0EC02A1E0EC02B1E0EC02C16A
:1002B800E0EC02D1E0EC02E1E0EC02F1704700BFB3
:1002C800B0FC0181B0FC0191B0FC01A1B0FC01B10E
:1002D800704700BFA0FC0181A0FC0191A0FC01A116
:1002E800A0FC01B1704700BFEC4600B52DE90050F5
:1002F8002DE9FF1F4FF000032DE90C0001A901F0C3
:10030800D3F9DDF840E012B0704700BFEC4600B505
:100318002DE900502DE9FF1F4FF000032DE90C00D7
:1003280001A901F0FDF9DDF840E012B0704700BF07
:10033800EC4600B52DE900502DE9FF1F4FF00003F2
:100348002DE90C0001A901F00DFADDF840E012B02A
:10035800704700BFEC4600B52DE900502DE9FF1F9E
:100368004FF000032DE90C0001AB01F0D1F9DDF8E5
:1003780040E012B0704700BFEC4600B52DE90050D0
:100388002DE9FF1F4FF000032DE90C0001AA01F031
:1003980041FADDF840E012B0704700BF704700BF77
:1003A8000348044B834202D0034B03B118477047FC
:1003B8005C0000205C000020000000000548064B9F
:1003C8001B1AD90F01EBA301491002D0034B03B14B
:1003D800184770475C0000205C0000200000000007
:1003E80010B5064C237843B9FFF7DAFF044B13B175
:1003F8000448AFF300800123237010BD5C00002087
:10040800000000005422000808B5054B1BB105493F
:100418000548AFF30080BDE80840FFF7CFBF00BF35
:100428000000000060000020542200082DE9F0417F
:100438008AB0002405940694079408940994244BE0
:100448001A6B42F010021A631A6B02F01002019242
:10045800019A1A6B42F001021A631A6B02F0010248
:100468000292029A1A6B42F008021A631A6B02F09F
:1004780008020392039A1A6B42F080021A631B6BFC
:1004880003F080030493049BDFF84C8001220821C9
:10049800404600F0D5FC0F4D01221021284600F0FF
:1004A800CFFC082305930127069707940226089690
:1004B80005A9404600F0C2FB102305930697079450
:1004C800089605A9284600F0B9FB0AB0BDE8F081F6
:1004D80000380240000C024000100240FEE7FEE730
:1004E800FEE7FEE7FEE770477047704708B500F083
:1004F80027FD08BD82B00A4B1A6C42F080521A647C
:100508001A6C02F080520092009A5A6C42F48042AF
:100518005A645B6C03F480430193019B02B07047FB
:1005280000380240002804DB0901C9B2044B195401
:10053800704700F00F000901C9B2024B1954704707
:1005480000E400E014ED00E000B500F00700C0F1A1
:10055800070CBCF1040F28BF4FF0040C031D062B39
:100568000FD9C31E4FF0FF3E0EFA0CF021EA00012E
:1005780099400EFA03FE22EA0E0241EA02005DF8F3
:1005880004FB0023EEE700000649CB6823F4E06390
:100598001B041B0C000200F4E0600343024A1A43E8
:1005A800CA60704700ED00E00000FA0510B5044687
:1005B800054BD868C0F30220FFF7C6FF0146204666
:1005C800FFF7B0FF10BD00BF00ED00E00138B0F14B
:1005D800807F0BD24FF0E0235861054AF02182F862
:1005E80023100020986107221A6170470120704784
:1005F80000ED00E0002800F0FF8170B582B00446ED
:10060800036813F0010F29D0954B9B6803F00C0386
:10061800042B1AD0924B9B6803F00C03082B0FD0C5
:100628006368B3F5803F40D0002B54D18C4B1A68D7
:1006380022F480321A601A6822F480221A6039E0A3
:10064800874B5B6813F4800FEAD0854B1B6813F463
:10065800003F03D06368002B00F0D081236813F0BB
:10066800020F74D07E4B9B6813F00C0F5ED07C4B4E
:100678009B6803F00C03082B53D0E368002B00F0B1
:100688008980774A136843F00103136000F064FC23
:100698000546734B1B6813F0020F72D100F05CFC27
:1006A800401B0228F5D90320ADE16D4A136843F4D5
:1006B8008033136063682BB300F04EFC0546684B2B
:1006C8001B6813F4003FC9D100F046FC401B6428A6
:1006D800F5D9032097E1B3F5A02F09D0604B1A682C
:1006E80022F480321A601A6822F480221A60E1E744
:1006F8005B4B1A6842F480221A601A6842F480320E
:100708001A60D7E700F028FC0546554B1B6813F420
:10071800003FA3D000F020FC401B6428F5D903203B
:1007280071E14F4B5B6813F4800FA6D14C4B1B68EB
:1007380013F0020F03D0E368012B40F06181484AAF
:10074800136823F0F803216943EAC103136023689F
:1007580013F0080F46D0636983B3414A536F43F0DF
:100768000103536700F0F8FB05463D4B5B6F13F040
:10077800020F37D100F0F0FB401B0228F5D9032007
:1007880041E1374A136823F0F803216943EAC103BA
:100798001360DCE7324A136823F00103136000F0AA
:1007A800DBFB05462E4B1B6813F0020FCFD000F081
:1007B800D3FB401B0228F5D9032024E1284A536FB4
:1007C80023F00103536700F0C7FB0546244B5B6F1A
:1007D80013F0020F06D000F0BFFB401B0228F5D92A
:1007E800032010E1236813F0040F7DD01C4B1B6C11
:1007F80013F0805F1ED11A4B1A6C42F080521A64B3
:100808001B6C03F080530193019B0125154B1B685A
:1008180013F4807F10D0A368012B25D0002B3BD187
:100828000F4B1A6F22F001021A671A6F22F00402A6
:100838001A671EE00025E9E70A4A136843F4807343
:10084800136000F089FB0646064B1B6813F4807F93
:10085800E1D100F081FB801B6428F5D90320D2E0A8
:1008680000380240007000406E4A136F43F00103E5
:100878001367A36833B300F06FFB0646694B1B6F21
:1008880013F0020F2FD100F067FB801B41F2883371
:100898009842F3D90320B6E0052B09D0614B1A6FB3
:1008A80022F001021A671A6F22F004021A67E0E7C1
:1008B8005C4B1A6F42F004021A671A6F42F0010289
:1008C8001A67D6E700F048FB0646564B1B6F13F035
:1008D800020F08D000F040FB801B41F28833984299
:1008E800F3D903208FE0FDB9A369002B00F08A80BB
:1008F8004C4A926802F00C02082A58D0022B19D0F0
:10090800484A136823F08073136000F025FB0446FF
:10091800444B1B6813F0007F47D000F01DFB001B01
:100928000228F5D903206EE03E4A136C23F0805369
:100938001364D9E73B4A136823F08073136000F00F
:100948000BFB0546374B1B6813F0007F06D000F001
:1009580003FB401B0228F5D9032054E0E369226A0F
:100968001343626A43EA8213A26A5208013A43EACD
:100978000243E26A43EA026343F00053294A5360A0
:10098800136843F08073136000F0E6FA0446254BC1
:100998001B6813F0007F06D100F0DEFA001B022866
:1009A800F5D903202FE000202DE000202BE01D4A80
:1009B8005268012B29D002F48003E1698B4226D1C9
:1009C80002F03F03216A8B4223D1616A47F6C07364
:1009D8001340B3EB811F1ED102F44031A36A5B08B8
:1009E800013BB1EB034F18D102F07062E36AB2EB3E
:1009F800036F14D1002006E001207047012002E0B7
:100A0800012000E0002002B070BD0120FBE70120BA
:100A1800F9E70120F7E70120F5E70120F3E70120D6
:100A2800F1E700BF0038024008B5264B9B6803F089
:100A38000C03042B41D0082B41D1224B5A6802F0F9
:100A48003F025B6813F4800F12D01E4B5968C1F344
:100A580088111D480023A1FB0001FFF7B1FB194BCA
:100A68005B68C3F3014301335B00B0FBF3F008BDDF
:100A7800144B5868C0F388104FEA401CBCEB000CBC
:100A88006EEB0E0E4FEA8E1343EA9C634FEA8C110D
:100A9800B1EB0C0163EB0E03DB0043EA5173C900B1
:100AA80011EB000C43F10003990200234FEA8C205C
:100AB80041EA9C51FFF784FBD1E70348D7E7034895
:100AC800D5E700BF0038024040787D010024F400DB
:100AD800002800F0A08070B50D460446524B1B68F4
:100AE80003F00F038B420BD24F4A136823F00F0316
:100AF8000B431360136803F00F038B4240F08D80A3
:100B0800236813F0020F17D013F0040F04D0474ADC
:100B1800936843F4E0539360236813F0080F04D0FC
:100B2800424A936843F460439360404A936823F0D1
:100B3800F003A1680B439360236813F0010F31D0D1
:100B48006368012B20D0022B25D0384A126812F096
:100B5800020F64D035498A6822F0030213438B6080
:100B680000F0FAF90646314B9B6803F00C03626803
:100B7800B3EB820F16D000F0EFF9801B41F28833F7
:100B88009842F0D9032045E0284A126812F4003F41
:100B9800E0D101203EE0254A126812F0007FD9D149
:100BA800012037E0204B1B6803F00F03AB420AD942
:100BB8001D4A136823F00F032B431360136803F0D7
:100BC8000F03AB422DD1236813F0040F06D0174A48
:100BD800936823F4E053E1680B439360236813F0B0
:100BE800080F07D0114A936823F46043216943EA48
:100BF800C1039360FFF718FF0C4B9B68C3F3031303
:100C08000B4AD35CD8400B4B18600B4B186800F0AC
:100C180065F9002070BD012070470120FAE7012026
:100C2800F8E70120F6E700BF003C02400038024028
:100C38006C220008080000200400002000230F2B6D
:100C480000F2F48070B582B066E085684FEA430E22
:100C5800032404FA0EF425EA0405CC6804FA0EF419
:100C68002C438460446824EA02044A68C2F30012F0
:100C78009A40224342605DE0DC08083450F82420A2
:100C880003F00705AD004FF00F0E0EFA05FE22EA3D
:100C98000E0E0A69AA4042EA0E0240F824205DE0DE
:100CA800092200E0002202FA0EF22A430234604DC3
:100CB80045F824205F4A94686FEA0C0224EA0C0580
:100CC8004E6816F4801F01D04CEA0405594CA56003
:100CD800E46802EA04054E6816F4001F01D04CEAE5
:100CE8000405544CE560646802EA04054E6816F48D
:100CF800003F01D04CEA04054E4C65602468224050
:100D08004D6815F4803F01D04CEA0402494C22603A
:100D180001330F2B00F2888001229A400C6804EA04
:100D2800020C32EA0404F3D14C6804F00304013CD9
:100D3800012C8AD94A6802F00302032A09D0C46840
:100D48005D000322AA4024EA02048A68AA402243DA
:100D5800C2604A6802F00302022A8DD004684FEA92
:100D6800430E032202FA0EF224EA02044A6802F051
:100D7800030202FA0EF2224302604A6812F4403F6C
:100D8800C6D02D4A546C44F480445464526C02F426
:100D980080420192019A9C08A51C254A52F82550C8
:100DA80003F0030E4FEA8E0E0F2202FA0EF225EA26
:100DB8000205224A90423FF475AF02F580629042E4
:100DC80022D002F58062904220D002F580629042E3
:100DD8001ED002F5806290421CD002F580629042DB
:100DE8001AD002F58062904218D002F580629042D3
:100DF80016D002F58062904214D002F580629042CB
:100E08003FF44EAF0A224EE701224CE702224AE79E
:100E1800032248E7042246E7052244E7062242E780
:100E2800072240E708223EE702B070BD704700BFC6
:100E380000380140003C01400038024000000240F8
:100E48000AB181617047090481617047436901EA09
:100E5800030221EA030141EA02418161704700006F
:100E680010B582B01B4B1A6C42F080521A641B6C8E
:100E780003F080530193019B174A136843F48033AE
:100E8800136000F069F80446134B5B6813F4803F65
:100E980008D100F061F8001BB0F57A7FF4D903207F
:100EA80002B010BD0C4A136843F40033136000F01D
:100EB80053F80446084B5B6813F4003F07D100F071
:100EC8004BF8001BB0F57A7FF4D90320E8E700203F
:100ED800E6E700BF003802400070004010B5044645
:100EE8000E4B1A784FF47A73B3FBF2F30C4A10687E
:100EF800B0FBF3F0FFF76AFB68B90F2C01D90120AA
:100F08000AE0002221464FF0FF30FFF74FFB054B68
:100F18001C60002000E0012010BD00BF0000002080
:100F2800080000200400002008B50320FFF72CFB70
:100F38000F20FFF7D3FFFFF7DDFA002008BD000000
:100F4800034A1168034B1B780B441360704700BFBA
:100F58007800002000000020014B1868704700BF8F
:100F68007800002038B50446FFF7F6FF0546B4F1CF
:100F7800FF3F02D0044B1B781C44FFF7EDFF401BDA
:100F8800A042FAD338BD00BF00000020034AD2F8BF
:100F9800883043F47003C2F88830704700ED00E0F1
:100FA80072B6FEE700B595B03022002108A800F01F
:100FB800B7F8002303930493059306930793234BF1
:100FC8001A6C42F080521A641B6C03F08053019330
:100FD800019B1F4B1A6842F440421A601B6803F4D5
:100FE80040430293029B012308934FF480330993F3
:100FF80002230E934FF480020F92192210924FF49D
:10100800D87211921293139308A8FFF7F3FAB0B9A4
:10101800FFF726FFA8B90F230393022304930023A5
:1010280005934FF4A05306934FF480530793072179
:1010380003A8FFF74DFD30B915B05DF804FBFFF7C5
:10104800AFFFFFF7ADFFFFF7ABFF00BF003802406F
:101058000070004008B5FFF767FFFFF7A3FFFFF731
:10106800E5F910210548FFF7F1FE08210448FFF7CC
:10107800EDFE4FF4FA70FFF775FFF2E7000C02403F
:1010880000100240DFF834D00D480E490E4A002304
:1010980002E0D458C4500433C4188C42F9D30B4A24
:1010A8000B4C002301E013600432A242FBD3FFF78C
:1010B8006DFF00F011F8FFF7CDFF70470000052025
:1010C800000000205C000020302300085C000020A5
:1010D800B8010020FEE7000070B50D4D0D4C641BF3
:1010E800A4100026A64209D10B4D0C4C01F0AEF815
:1010F800641BA4100026A64205D170BD55F8043B18
:1011080098470136EEE755F8043B98470136F2E771
:101118002823000828230008282300082C23000877
:1011280002440346934200D1704703F8011BF9E7D4
:10113800FEE700BF2DE9F047089D0E4604460F461E
:10114800002B4AD194468C45B2FA82F260D942B15A
:10115800C2F12003974020FA03F30CFA02FC1F4364
:1011680094404FEA1C4E1FFA8CF6B7FBFEF1230C95
:101178000EFB117743EA074301FB06F098420AD9B0
:101188001CEB030301F1FF3780F01581984240F210
:101198001281023963441B1AA4B2B3FBFEF00EFBA2
:1011A800103344EA034400FB06F6A6420AD91CEBB6
:1011B800040400F1FF3380F00081A64240F2FD8074
:1011C8006444023840EA0140A41B00211DB1D44008
:1011D8000023C5E90043BDE8F0878B4205D90DB16E
:1011E800C5E9000100210846F5E7B3FA83F10029B3
:1011F80046D1B34202D3824200F2F580841A66EBEC
:10120800030201201746002DE5D0C5E90047E2E7B3
:10121800002A40F09380A1EB0C034FEA1C471FFA09
:101228008CFE0121B3FBF7F607FB1630230C43EACB
:1012380000430EFB06F0984208D91CEB030306F1A5
:10124800FF3802D2984200F2D08046461B1AA4B258
:10125800B3FBF7F007FB103344EA03440EFB00FE30
:10126800A64508D91CEB040400F1FF3302D2A645B9
:1012780000F2B6801846A4EB0E0440EA0640A5E743
:10128800C1F120078B4022FA07FC4CEA030C06FA4E
:1012980001FE20FA07F426FA07F344EA0E0400FADE
:1012A80001F84FEA1C404FEA1449B3FBF0FE1FFA5D
:1012B8008CF600FB1E3349EA03430EFB06F99945F9
:1012C80002FA01F20BD91CEB03030EF1FF3A80F08E
:1012D8008580994540F28280AEF1020E6344A3EB0B
:1012E8000909A4B2B9FBF0F300FB139944EA0944D5
:1012F80003FB06F6A64208D91CEB040403F1FF30F1
:1013080068D2A64266D9023B644443EA0E40A41B55
:10131800A0FB02E6B4427346B14652D34FD05DB14A
:10132800B8EB030264EB090404FA07F722FA01F3A5
:101338001F43CC40C5E9007400214CE7C2F12001ED
:1013480020FA01F30CFA02FC26FA01F19640334325
:101358004FEA1C471FFA8CFEB1FBF7F007FB10168B
:10136800190C41EA064100FB0EF68E4204FA02F41B
:1013780008D91CEB010100F1FF382DD28E422BD980
:1013880002386144891B9BB2B1FBF7F607FB1611C3
:1013980043EA014306FB0EF1994208D91CEB03030B
:1013A80006F1FF3814D2994212D9023E63445B1AFF
:1013B80046EA004136E73946EDE6184602E7F045C9
:1013C800ADD2BEEB020366EB0C060138B146A6E7C8
:1013D8004646ECE7034698E74046D3E7D6467EE71D
:1013E8006444023847E708460DE7023E63442DE7A8
:1013F80003685A004CBF43F0004323F000431844ED
:10140800704700BF2DE9F04759B301F1FF38054691
:10141800164647464FF0000A0AEB070101EBD17167
:10142800491005EBC1094846FFF7E2FF88454FEA36
:10143800C104034610D004F10800B342284407D879
:10144800FFF7D6FF0138B04208D201F1010AE3E7FD
:101458008A4506D04F1EDFE7B042F9D84846BDE8B6
:10146800F0874FF000094846BDE8F087012809D009
:10147800022805D0044B00280CBF184600207047EE
:101488000248704702487047451B0008551B000872
:101498004D1B000830B5224B83B004468D1E43B364
:1014A80001A92846AFF30080F0B101992A46FFF759
:1014B800A9FF0146C0B1FFF79BFF4B68A064012B51
:1014C8002BD0002B01F1040025DBFFF791FF00234F
:1014D80023650368E064002B12DBFFF789FF0346EE
:1014E8000020236103B030BD00230920236103B02D
:1014F80030BD0C4B0C49C91AC91018460191D5E7E3
:10150800C3F30360FFF7B2FF031E0CBF09200020DE
:10151800236103B030BD0123DAE700230520E0E7AB
:101528000000000088220008282300080368DA0762
:1015380010B5044606D49B0700F1500009D5FEF704
:101548006BFE2368590709D51A070ED5DB0613D594
:1015580010BDFEF759FE23685907F5D404F1D800E9
:10156800FEF762FE23681A07F0D404F5AC70FEF7A4
:1015780063FE2368DB06EBD404F5EC70BDE810408D
:10158800FEF79EBE0346006800B11844704700BFCE
:10159800704700BF70B504460E46316C2046FFF711
:1015A80079FF054688B9326C626123693246214663
:1015B800012098470828F0D0072806D12846316C22
:1015C800FFF7E6FF301DFEF713FE00F0E3FD00BF56
:1015D8002DE9F04701F1040CC768D0F818800646D9
:1015E8009146BCE80F00ADF5767D03AC0FC4BCE8AE
:1015F8000F000FC4BCE80F000FC49CE80F0002AD39
:101608004FF0000E84E80F00C5F800E021E02B6CD5
:1016180073614FF4F47229467CA800F0ADFD33697C
:101628007CAA3146504698478A9BAB644946CDE927
:1016380000588246334601203246B847814630BBBF
:101648004FF4F4727CA9284600F096FDBAF1080F11
:101658001AD1296C3046FFF71DFF09F10909044624
:101668005FFA89FA0028D2D0AB6BAB643246CDE979
:10167800005833464AF010010120B84738B92046CF
:101688000DF5767DBDE8F087BAF1070F05D009247E
:1016980020460DF5767DBDE8F0874846296CFFF7B2
:1016A80077FF03A8FEF7A4FDF0B5CB6B0B6401F13F
:1016B800040C0E460546BCE80F00FBB001AC0FC495
:1016C800BCE80F000FC4BCE80F000FC49CE80F0073
:1016D8004FF0FF3784E80F00009706E02B696A4651
:1016E800294698470828044608D110992846FFF744
:1016F800D1FE0028F2D009207BB0F0BD6846FFF784
:1017080015FF062CF7D131462846FFF743FF00BFE7
:10171800C160D96B8261196400221946FFF758BF6E
:1017280070B5C66843690B64AEB903690A460446D6
:101738000D46014602209847072805D008280FD1F2
:1017480029462046FFF726FF3046296CFFF720FF81
:10175800281DFEF74DFD0122FFF73AFF00F01AFDA4
:1017680000F018FDC26822B1CA6B0A640022FFF7B4
:101778002FBFFFF799BF00BF052915D8DFE801F093
:101788000A031403030501207047009A436C136091
:101798000020704743B90F2A06D800EB82020020C8
:1017A8005368009A136070470220704700B585B0EF
:1017B8000A46002303A900911946FFF7DDFF0398A5
:1017C80005B05DF804FB00BF052915D8DFE801F076
:1017D8000A031403030501207047009B1B68436438
:1017E8000020704743B90F2A06D8009B00EB8202FD
:1017F8001B685360002070470220704710B584B002
:10180800002303AC039200940A461946FFF7DCFF55
:1018180004B010BD70B5D36B136402F1040C054617
:101828000C46BCE80F00ADF5107D0DF15C0EAEE87E
:101838000F00BCE80F00AEE80F00BCE80F00AEE8F0
:101848000F009CE80F004FF0FF368EE80F00169649
:1018580010E0FFF7D3FF214616A8A847034616AAAB
:101868000820694683B9049B9847052806460CD08A
:10187800092809D026996846FFF70CFE03460C2173
:101888006A4616A8002BE4D0092616A8FFF74EFED4
:1018980030460DF5107D70BD2DE9F04F1646CA6C27
:1018A80089B00D4652F8041B069200F0030C002B79
:1018B80079D00C0C8DF81D400904E4B2059102EBB7
:1018C800840202218DF81C10296DBCF1020F08BF9B
:1018D800AA6B11F0010809D005A9304600F0CEFA2C
:1018E800002856D1082009B0BDE8F08F1768002FEE
:1018F800F2D000F00801CDE90118E3469A46BAF1A2
:10190800020F4CD01788548802F10409AA6C24F0FD
:1019180001030F21304603EB0208FFF747FF80451C
:101928003BD827F0010202EB0803834294BF00234F
:101938000123640004F0020407F001072743012F84
:101948004ED0022F35D027BBBBF1000F02D0002BA1
:1019580040F0D38009F104021768002FCFD105A900
:101968003046DDF8088000F089FA90B9B8F1000F28
:10197800B8D00F213046FFF719FF0E210246304636
:10198800FFF73CFF6C4A0F213046FFF737FF07206F
:1019980000E0092009B0BDE8F08F0023C9E75468CA
:1019A80002F10809B2E7090205918DF81D300321FB
:1019B80088E7D9F8004024F00048BBF1000F47D170
:1019C8002BB1019B002B5CD0B8F1000F59D0002C33
:1019D80001DA09F1040908F1010209EB8202BBE707
:1019E800BBF1000F1CD1C3B1D9F80430D9F80020DD
:1019F800991C4FEAD272CCD005F1580401330494F3
:101A080000F08E8009F10400FFF7BCFD04AB01462D
:101A18002846AFF30080002859D109F108029BE756
:101A28000D213046FFF7C2FE2C6A8442F5D1AB6A1D
:101A38009945F2D14846FFF7DBFC0F2102463046B4
:101A4800FFF7DCFE2A4600213046FFF7D7FE9EE767
:101A58000D213046FFF7AAFE2F6A8742B7D1AB6A3D
:101A68009945B4D100240423C5E90B434B44C5F878
:101A780028806B63D9F80030A34258DB0123029316
:101A8800A9E705F15803CDF80CB009F10407B346EE
:101A980000241E460BE038460496FFF773FD00222B
:101AA800014604AB2846AFF300800437F8B9444533
:101AB80004F10104EFD10D215846FFF777FE049B8E
:101AC800C5F828900246C5E90823062062E70446BF
:101AD8000D213046FFF76AFE049E2862022C04BFDF
:101AE800EE6205F12C06C5E90969062052E75E4653
:101AF800D9F80040DDF80CB069E74846FFF778FCF4
:101B080009F104030446AB632846AFF300800028BC
:101B18003FF43FAF22460F213046FFF76FFE36E70E
:101B280030460D21FFF742FE26462862DBE708F122
:101B3800010209EB82007EE7000000000023FFF7A6
:101B4800ABBE00BF0123FFF7A7BE00BF0223FFF70C
:101B5800A3BE00BF2DE9F0410646C4B014460529CE
:101B680000F2D880DFE811F012002D00D6006C00DA
:101B780091000600836B002C40F0CC8053F8042BB6
:101B880042648363002044B0BDE8F081002B40F03C
:101B9800C180856B1FFA84FC012006F1040E00FA4F
:101BA80003F111EA0C0F2A4604D052F8041B4EF830
:101BB800231015460133102BF1D1A704E2D4B563E5
:101BC800E0E7012B4FEA1447A4B200F08380052B0D
:101BD80040F0A08007EB0408B8F1200F00F29A80CB
:101BE8000F2F40F29980002CCCD00268500700F1EA
:101BF8001881019302AD2846FEF71AFB4FEA440C00
:101C0800A7F11000B16B019B0CF1FF3C05EBC00084
:101C18000CF1010C043801EB8C0251F8044B40F82C
:101C2800044F9142F9D1012B00F0DE800F2FB163F0
:101C380002D822A8FEF7F0FA2846FEF7F5FAA1E73F
:101C4800032B67D1A7B207EB1443102B4FEA1444B8
:101C580060D80368190700F1BF8022AD2846FEF757
:101C68000DFB7A00B06B05EBC404531E42B1011B97
:101C7800625844F8042B013B5A1CF9D100EBC70009
:101C8800B0632846FEF7D8FA7CE7002B42D1102C27
:101C980040D80368DD0600F1978022AD2846FEF79C
:101CA80019FBB76B294600234FF0010C0CFA03F21D
:101CB8002242384603F1010303D050F8042B0A608E
:101CC8000746042B01F10401F0D1B7632846FEF75B
:101CD800F7FA57E73A19102A1CD8102F1AD00268B9
:101CE800D00708D5304622F0030240F8502B019364
:101CF800FEF78EFA019B019322AD2846FEF788FA7B
:101D0800B26B019B002C58D10432B2632846FEF70F
:101D18007BFA37E7022036E7B8F1100F026865D979
:101D2800D40772D522F0010242F0020240F8502B8B
:101D38000193FEF775FA3268019B12F0040F66D121
:101D480022AD28460193FEF76BFA02A8FEF770FA57
:101D5800C7F110014900B26B019BA8F1100C4C1E91
:101D680005EBC7000134043802EB840152F8044B38
:101D780040F8044F8A42F9D1BCF1000F5AD0102F15
:101D8800384638BF10204FEA4C0C103802AD0CF121
:101D9800FF3C05EBC0003BE7304622F0010242F071
:101DA800020240F8502B22AD0193FEF739FA28467B
:101DB800FEF736FAB26B24B3019B6400013C05EBD5
:101DC800C7004FF0000CCDE723F01003036000F5C7
:101DD800EC70FEF77FFA60E723F00803036000F574
:101DE800AC70FEF74BFA38E722AD8DE7D107D3D4B4
:101DF80022AD28460193FEF713FAB26B019B002C23
:101E0800DBD12846FEF708FABCE6540798D53046D9
:101E180022F0040240F8D82B0193FEF709FA019B3F
:101E28008EE7304622F0040240F8D82B0193FEF7E3
:101E3800FFF9DFE6012B3FF467AF0F2FB2633FF6E0
:101E4800A1AEDEE7027A03467AB9427AA2B14168C6
:101E5800013A10B44272086803220C1D1A72020279
:101E68005C60000E10BC1A6070470068013A1A7274
:101E780002021A60000E7047B02070472DE9F04347
:101E8800064685B00D464FF000082846FFF7DAFFF2
:101E9800B028044600F01C8107065BD500F0F0036B
:101EA800A02B1AD030D8802B00F08280902B27D11D
:101EB80000F00D030D2B23D002AF002300F00F021A
:101EC800194600973046FFF757FC002300970D226C
:101ED80019463046FFF778FCD7E7C34303F00703FA
:101EE8004FF47F621A41010702F47F6201D542F480
:101EF8008042002319463046FFF72CFE0028C4D044
:101F0800092005B0BDE8F083B02B68D0C02B3DD1C7
:101F1800C62800F0CA80C72800F0DF8000F0F80368
:101F2800C02B00F0EC80C82800F0F780C928E7D162
:101F38002846FFF787FF020300F00F0002F4702223
:101F480001300243012105233046FFF703FE002834
:101F58009BD0D5E78300DBB21F1D0DF108090023D4
:101F68001946CDF800900D223046FFF705FC029B7C
:101F7800CDF8009060064CBFDF1BFF1800230D2230
:101F8800194630460297FFF71FFC7EE700F0F8037A
:101F9800D02BB5D100F007020132052342F400220C
:101FA80001213046FFF7D6FD00283FF46EAFA7E7C2
:101FB8002846FFF747FF24022043B0F5004F9FD083
:101FC80004010023A2B219463046FFF7C3FD0028DA
:101FD80096D114F4004F18BF4FF0010855E7A0F14F
:101FE800B103042B00F2B580DFE803F05529160C85
:101FF800030003AA0023009219460D223046FFF77A
:10200800BBFB42E700231A4605213046FFF7A2FD35
:1020180000283FF43AAF73E72846FFF713FF02039F
:1020280000F00F00013002F4702201230243194628
:102038003046FFF78FFD00283FF427AF60E7002305
:102048000DF108090D221946CDF800903046FFF72A
:1020580093FB2846FFF7F6FE0206029C4FF00207A4
:102068000BD500F07F00B840044428460294FFF7DF
:10207800E9FE030607F10707F3D4B840002304F587
:1020880001740444CDF800900D221946304602949C
:10209800FFF79AFBF9E62846FFF7D4FE431EDBB2AA
:1020A8000E2B02467FF625AF2AE72846FFF7CAFE21
:1020B800020300F00F00013002F4702203230243F0
:1020C80019463046FFF746FD00283FF4DEAE17E715
:1020D800B8F1000F2DD0002013E72846FFF7B2FE15
:1020E800431EDBB20E2B02463FF60AAF0023042143
:1020F8003046FFF72FFD00283FF4C7AE00E700F099
:102108000F020132032342F4202219463046FFF71A
:1021180021FD00283FF4B9AEF2E62846FFF792FE0B
:1021280000F0F00200F00F031032013343EA0232EC
:1021380008E702AC4346414600940E223046FFF7BA
:102148001BFB0F220094434641463046FFF73CFBF9
:10215800C1E700F0FC03B42B3FF4D2AE00F0070255
:102168000132012342F4002219463046FFF7F2FCFF
:1021780000283FF48AAEC3E60A44914200F1FF33D7
:1021880000D1704710B511F8014B03F8014F914287
:10219800F9D110BD08B5062000F02CF80120FEF793
:1021A800C7FF1F2938B505460C4604D91623036016
:1021B8004FF0FF3038BDC26B12B152F821304BB925
:1021C800284600F031F8224601462846BDE8384046
:1021D80000F018B8012B0AD0591C03D1162303604C
:1021E8000120E7E7002142F8241020469847002004
:1021F800E0E70000024B01461868FFF7D2BF00BFB6
:102208000C00002038B5074D002304460846114647
:102218002B6000F013F8431C02D12B6803B1236034
:1022280038BD00BFB401002000F000B8024B5822AE
:102238001A604FF0FF307047B4010020024B58225B
:102248001A604FF0FF307047B4010020F8B500BFA6
:10225800F8BC08BC9E467047F8B500BFF8BC08BC7F
:042268009E467047D7
:10226C00000000000000000001020304060708093A
:0C227C0008B10181B0B000840000000037
:1022880020EDFF7F010000001CEDFF7F008414801B
:10229800C4EDFF7FE0FFFF7FECEDFF7F0100000052
:1022A800F4F1FF7FB0A9028084F2FF7FB0B0A8806C
:1022B800D4F2FF7F01000000DCF2FF7FB0B0AA80FB
:1022C80010F3FF7FAE75B280E0F3FF7FAB3F3A803B
:1022D80040F4FF7F0100000048F4FF7FB0B0AA80FF
:1022E80084F4FF7F010000002CF5FF7FAA0FB28065
:1022F800A8F5FF7FB0AF088044F8FF7F0100000019
:1023080054F8FF7FAC3F03803CFBFF7F01000000D7
:102318006CFBFF7FB0AD048060FEFF7F0100000012
:042328001104000894
:04232C00E9030008B9
:1023300001000000100000000024F4001000002044
:10234000000000007C000020E40000204C01002080
:10235000000000000000000000000000000000007D
:10236000000000000000000000000000000000006D
:10237000000000000000000000000000000000005D
:0C23800000000000000000000000000051
:040000050800108D52
:00000001FF
