:020000040800F2
:100000000000052031210008CD050008CF050008BB
:10001000D1050008D3050008D50500080000000040
:10002000000000000000000000000000D7050008EC
:10003000D905000800000000DB050008DD05000808
:100040008121000881210008812100088121000808
:1000500081210008812100088121000881210008F8
:1000600081210008812100088121000881210008E8
:1000700081210008812100088121000881210008D8
:1000800081210008812100088121000881210008C8
:1000900081210008812100088121000881210008B8
:1000A00081210008812100088121000881210008A8
:1000B0008121000881210008812100088121000898
:1000C0008121000881210008812100088121000888
:1000D0008121000881210008812100088121000878
:1000E0008121000881210008812100088121000868
:1000F0008121000881210008812100088121000858
:100100008121000881210008812100088121000847
:100110008121000881210008812100088121000837
:100120008121000881210008812100088121000827
:100130008121000881210008812100088121000817
:100140008121000881210008812100088121000807
:10015000812100088121000881210008E5050008AF
:1001600081210008812100088121000881210008E7
:100170008121000881210008812100080000000081
:1001800081210008812100088121000881210008C7
:1001900081210008812100088121000881210008B7
:1001A00081210008812100088121000881210008A7
:1001B0008121000881210008812100088121000897
:0801C0008121000881210008E3
:1001C80053B94AB9002908BF00281CBF4FF0FF31B6
:1001D8004FF0FF3000F0E2B8ADF1080C6DE904CE45
:1001E80001F0FAFFDDF804E0DDE9022304B070470E
:1001F80000F1340191E838009C46A6464CF8045DAD
:1002080090E8FF0FE54600BD90EC210B704700BF5A
:1002180080EC210B704700BF90EC200B704700BFAB
:1002280080EC200B704700BFD0EC200B704700BF5C
:10023800C0EC200B704700BFF0EC0201F0EC02119B
:10024800F0EC0221F0EC0231F0EC0241F0EC02514A
:10025800F0EC0261F0EC0271F0EC0281F0EC02913A
:10026800F0EC02A1F0EC02B1F0EC02C1F0EC02D12A
:10027800F0EC02E1F0EC02F1704700BFE0EC0201A3
:10028800E0EC0211E0EC0221E0EC0231E0EC02418A
:10029800E0EC0251E0EC0261E0EC0271E0EC02817A
:1002A800E0EC0291E0EC02A1E0EC02B1E0EC02C16A
:1002B800E0EC02D1E0EC02E1E0EC02F1704700BFB3
:1002C800B0FC0181B0FC0191B0FC01A1B0FC01B10E
:1002D800704700BFA0FC0181A0FC0191A0FC01A116
:1002E800A0FC01B1704700BFEC4600B52DE90050F5
:1002F8002DE9FF1F4FF000032DE90C0001A902F0C2
:1003080025FADDF840E012B0704700BFEC4600B5B2
:100318002DE900502DE9FF1F4FF000032DE90C00D7
:1003280001A902F04FFADDF840E012B0704700BFB3
:10033800EC4600B52DE900502DE9FF1F4FF00003F2
:100348002DE90C0001A902F05FFADDF840E012B0D7
:10035800704700BFEC4600B52DE900502DE9FF1F9E
:100368004FF000032DE90C0001AB02F023FADDF891
:1003780040E012B0704700BFEC4600B52DE90050D0
:100388002DE9FF1F4FF000032DE90C0001AA02F030
:1003980093FADDF840E012B0704700BF704700BF25
:1003A8000348044B834202D0034B03B118477047FC
:1003B8005C0000205C000020000000000548064B9F
:1003C8001B1AD90F01EBA301491002D0034B03B14B
:1003D800184770475C0000205C0000200000000007
:1003E80010B5064C237843B9FFF7DAFF044B13B175
:1003F8000448AFF300800123237010BD5C00002087
:1004080000000000F832000808B5054B1BB105498B
:100418000548AFF30080BDE80840FFF7CFBF00BF35
:100428000000000060000020F83200082DE9F041CB
:100438008AB0002405940694079408940994294BDB
:100448001A6B42F010021A631A6B02F01002009243
:10045800009A1A6B42F001021A631A6B02F0010249
:100468000192019A1A6B42F008021A631A6B02F0A1
:1004780008020292029A1A6B42F080021A631A6BFF
:1004880002F080020392039A1A6B42F004021A6384
:100498001B6B03F004030493049BDFF850800122D4
:1004A8000821404601F018FD0F4D01221021284671
:1004B80001F012FD082305930127069707940226E9
:1004C800089605A9404601F005FC102305930697F8
:1004D8000794089605A9284601F0FCFB0AB0BDE878
:1004E800F08100BF00380240000C024000100240BA
:1004F80008B50B480B4B03604FF4E133436000230E
:100508008360C36003610C2242618361C36103623B
:10051800436200F08EFD00B908BD01F091FDFBE7D4
:10052800780000200014014010B5A8B0044600214E
:1005380023912491259126912791842202A801F0E4
:100548001CFE22681C4B9A4201D028B010BD4FF403
:100558000063029302A801F0E7F848BB174B5A6CF6
:1005680042F020025A645A6C02F020020092009A6B
:100578001A6B42F004021A631B6B03F00403019325
:10058800019BC0232393022424940023259303234F
:1005980026930823279323A9094801F09BFB2246A9
:1005A8002146472000F0DCF8472000F0E9F8CCE7C6
:1005B80001F046FDD2E700BF0014014000380240B8
:1005C80000080240FEE7FEE7FEE7FEE7FEE77047A9
:1005D8007047704708B500F059F808BD08B50248DB
:1005E80000F038F908BD00BF7800002000B583B0DE
:1005F8000C4B1A6C42F080521A641A6C02F080524A
:100608000092009A5A6C42F480425A645B6C03F47C
:1006180080430193019B052000F090F803B05DF83A
:1006280004FB00BF0038024010B504460E4B1A7890
:100638004FF47A73B3FBF2F30C4A1068B0FBF3F093
:1006480000F0ACF868B90F2C01D901200AE00022AB
:1006580021464FF0FF3000F083F8054B1C60002066
:1006680000E0012010BD00BF0000002008000020AD
:100678000400002008B5032000F060F80020FFF710
:10068800D3FFFFF7B3FF002008BD0000034A11683D
:10069800034B1B780B441360704700BF0001002018
:1006A80000000020014B1868704700BF00010020BF
:1006B80038B50446FFF7F6FF0546B4F1FF3F02D010
:1006C800044B1B781C44FFF7EDFF401BA042FAD3F4
:1006D80038BD00BF00000020002804DB0901C9B2B2
:1006E800044B1954704700F00F000901C9B2024BBE
:1006F8001954704700E400E014ED00E000B500F084
:100708000700C0F1070CBCF1040F28BF4FF0040C20
:10071800031D062B0FD9C31E4FF0FF3E0EFA0CF037
:1007280021EA000199400EFA03FE22EA0E0241EA8C
:1007380002005DF804FB0023EEE700000649CB68E1
:1007480023F4E0631B041B0C000200F4E060034385
:10075800024A1A43CA60704700ED00E00000FA053B
:1007680010B50446054BD868C0F30220FFF7C6FF52
:1007780001462046FFF7B0FF10BD00BF00ED00E0C6
:10078800002807DB00F01F02400901239340024ABA
:1007980042F82030704700BF00E100E00138B0F1B6
:1007A800807F0BD24FF0E0235861054AF02182F890
:1007B80023100020986107221A61704701207047B2
:1007C80000ED00E0026852E8003F23F4907342E82D
:1007D80000310029F6D1026802F1080353E8003F0E
:1007E80023F00103083242E800310029F3D1036EF7
:1007F800012B06D02023C0F88030002303668366CF
:100808007047026852E8003F23F0100342E80031C5
:100818000029F6D1EEE7704708B5026852E8003FB4
:1008280023F0400342E800310029F6D12023C367B2
:100838000023C366FFF7EFFF08BD704708B5806B5C
:100848000023A0F85A30A0F85230FFF7F6FF08BD91
:100858007047000038B504460268D369106891688B
:1008680040F60F0C13EA0C0F0AD113F0200F0DD02D
:1008780010F0200F0AD0A36ED3B12046984717E096
:1008880011F0010115D1A44D284212D1216E012980
:1008980000F09D8013F0800F03D010F0800F40F01F
:1008A800308113F0400F03D010F0400F40F030813A
:1008B80038BD13F0010F09D010F4807F06D0012550
:1008C8001562D4F884202A43C4F8842013F0020F58
:1008D80009D041B1226802251562D4F8842042F07B
:1008E8000402C4F8842013F0040F09D041B122682F
:1008F80004251562D4F8842042F00202C4F884204A
:1009080013F0080F0BD010F0200F00D139B1226876
:1009180008211162D4F884200A43C4F8842013F40F
:10092800006F0CD010F0806F09D022684FF400617E
:100938001162D4F8842042F02002C4F88420D4F84C
:100948008420002AB4D013F0200F06D010F0200F16
:1009580003D0A36E0BB120469847D4F884202368AF
:100968009B6813F0400F02D112F0280F28D02046C0
:10097800FFF728FF23689B6813F0400F1CD02268FC
:1009880002F1080353E8003F23F04003083242E82D
:1009980000310029F3D1636F53B1604A1A65606F63
:1009A80001F0F3FA002883D0606F036D98477FE762
:1009B8002046FFF742FF7BE72046FFF73EFF77E739
:1009C8002046FFF73AFF0023C4F8843070E713F09D
:1009D800100F3FF45FAF10F0100F3FF45BAF102320
:1009E800136223689B6813F0400F50D0626F13683E
:1009F8005B689BB2002B3FF45BAFB4F85810994288
:100A08007FF656AFA4F85A30D369B3F5807F31D05A
:100A1800226852E8003F23F4807342E8003100293D
:100A2800F6D1226802F1080353E8003F23F00103DE
:100A3800083242E800310029F3D1226802F10803A4
:100A480053E8003F23F04003083242E80031002910
:100A5800F3D12023C4F8803000232366226852E8AB
:100A6800003F23F0100342E800310029F6D1606FFF
:100A780001F041FA02236366B4F85810B4F85A300A
:100A88009BB2C91A89B22046FFF7E2FE10E7B4F814
:100A98005810B4F85A309BB2C91A89B2B4F85A300F
:100AA8009BB2002B3FF404AF00293FF401AF22684A
:100AB80052E8003F23F4907342E800300028F6D152
:100AC800226802F1080353E8003F23F001030832CB
:100AD80042E800300028F3D12023C4F880300023F6
:100AE8002366A366226852E8003F23F0100342E819
:100AF80000300028F6D1022363662046FFF7A8FEDF
:100B0800D6E6E36E002B3FF4D3AE20469847CFE6F7
:100B18002046FFF781FECBE62001000445080008C7
:100B280010B5044683680269134342691343C269D6
:100B3800134301680868914A02401A430A60226810
:100B4800536823F44053E1680B435360A269236A56
:100B58001A4321688B6823F4306313438B6023683E
:100B6800874A934218D0874A93423AD0864A93429A
:100B78004FD0864A93425ED0854A93426DD0854ACB
:100B880093427FD0844A934200F09180834A9342F3
:100B980000F0A28010230BE0814BD3F8903003F0D3
:100BA8000303032B1BD8DFE803F00216AB1801235D
:100BB800E069B0F5004F00F0D780082B00F23881CB
:100BC800DFE813F014012701120136012A0136016A
:100BD800360136012D010423EAE70823E8E710234C
:100BE800E6E76F4BD3F8903003F00C030C2B0ED8CC
:100BF800DFE803F0070D0D0D090D0D0D880D0D0D26
:100C08000B000023D4E70423D2E70823D0E71023FE
:100C1800CEE7634BD3F8903003F03003202B73D02A
:100C280005D8002B72D0102B72D10423C0E7302BCB
:100C380070D10823BCE75A4BD3F8903003F0C003B7
:100C4800802B69D005D8002B68D0402B68D10423AD
:100C5800AEE7C02B66D10823AAE7514BD3F89030F2
:100C680003F44073B3F5007F5ED006D8002B5DD047
:100C7800B3F5807F5CD104239AE7B3F5407F59D15F
:100C8800082395E7464BD3F8903003F44063B3F557
:100C9800006F51D006D8002B50D0B3F5806F4FD1DC
:100CA800042385E7B3F5406F4CD1082380E73C4B1C
:100CB800D3F8903003F44053B3F5005F44D006D81E
:100CC800002B43D0B3F5805F42D1042370E7B3F51E
:100CD800405F3FD108236BE7314BD3F8903003F4E2
:100CE8004043B3F5004F37D005D8BBB3B3F5804FB9
:100CF80036D104235CE7B3F5404F33D1082357E7D7
:100D0800022355E7022353E7022351E700234FE765
:100D180010234DE710234BE7022349E7002347E759
:100D2800102345E7102343E7022341E700233FE769
:100D380010233DE710233BE7022339E7012337E778
:100D4800102335E7102333E7022331E700232FE789
:100D580010232DE710232BE7022329E7002327E799
:100D6800102325E7102323E7082B5BD8DFE803F0DF
:100D78001A343A5A375A5A5A1E0000BFF369FFEF1D
:100D8800001001400044004000480040004C004072
:100D9800005000400014014000780040007C0040F2
:100DA8000038024000F0A0FC00283DD062685308DB
:100DB80003EB4003B3FBF2F3A3F110014FF6EF721C
:100DC800914233D89AB222F00F02C3F3420313437D
:100DD8002268D360002030E000F096FCE4E700F0E1
:100DE80073FBE1E71748E1E7164802E000F07CFCF6
:100DF80000B3636800EB5300B0FBF3F0A0F11002FE
:100E08004FF6EF739A4217D8236880B2D860002053
:100E180013E000F079FCEBE700F056FBE8E74FF44D
:100E28000040E6E7012008E0002006E0012004E099
:100E3800012002E0002000E001200023A366E36611
:100E480010BD00BF0024F400436A13F0010F06D060
:100E58000268536823F40033816A0B435360436A82
:100E680013F0020F06D00268536823F48033C16A76
:100E78000B435360436A13F0040F06D002685368AB
:100E880023F48023016B0B435360436A13F0080F6C
:100E980006D00268536823F40043416B0B43536048
:100EA800436A13F0100F06D00268936823F4805346
:100EB800816B0B439360436A13F0200F06D00268DE
:100EC800936823F40053C16B0B439360436A13F098
:100ED800400F0AD00268536823F48013016C0B4357
:100EE8005360036CB3F5801F0BD0436A13F0800F77
:100EF80006D00268536823F40023816C0B435360C7
:100F080070470268536823F4C003416C0B43536075
:100F1800EBE72DE9F84305460F4616469946DDF8F6
:100F280020802B68DC6937EA04040CBF0124002404
:100F3800B44255D1B8F1FF3FF3D0FFF7B3FBA0EBB4
:100F4800090040452ED8B8F1000F2BD02B681A683D
:100F580012F0040FE5D0DA6912F4006FE1D04FF413
:100F680000621A622A6852E8003F23F4D07342E80C
:100F780000310029F6D12A6802F1080353E8003F3E
:100F880023F00103083242E800310029F3D120237D
:100F9800EB67C5F88030C5F88430002385F87830D1
:100FA80003201EE02A6852E8003F23F4D07342E889
:100FB80000310029F6D12A6802F1080353E8003FFE
:100FC80023F00103083242E800310029F3D120233D
:100FD800EB67C5F88030002385F87830032000E0FF
:100FE8000020BDE8F88310B582B004460023C0F89D
:100FF8008430FFF757FB23681B6813F0080F0AD1EA
:101008002023E367C4F8803000202066606684F8F7
:10101800780002B010BD6FF07E43009303460022B3
:101028004FF400112046FFF774FF0028E8D0032092
:10103800EFE768B310B50446C36F03B32423E3672F
:101048002268136823F0010313602046FFF768FD48
:10105800012813D0636ABBB92268536823F490430C
:1010680053602268936823F02A0393602268136808
:1010780043F0010313602046FFF7B5FF10BD80F869
:101088007830FFF751FAD9E72046FFF7DDFEE3E7AE
:1010980001207047002800F0FF8170B582B0044637
:1010A800036813F0010F29D0954B9B6803F00C03DC
:1010B800042B1AD0924B9B6803F00C03082B0FD01B
:1010C8006368B3F5803F40D0002B54D18C4B1A682D
:1010D80022F480321A601A6822F480221A6039E0F9
:1010E800874B5B6813F4800FEAD0854B1B6813F4B9
:1010F800003F03D06368002B00F0D081236813F011
:10110800020F74D07E4B9B6813F00C0F5ED07C4BA3
:101118009B6803F00C03082B53D0E368002B00F006
:101128008980774A136843F001031360FFF7BAFA1E
:101138000546734B1B6813F0020F72D1FFF7B2FA22
:10114800401B0228F5D90320ADE16D4A136843F42A
:101158008033136063682BB3FFF7A4FA0546684B26
:101168001B6813F4003FC9D1FFF79CFA401B6428A1
:10117800F5D9032097E1B3F5A02F09D0604B1A6881
:1011880022F480321A601A6822F480221A60E1E799
:101198005B4B1A6842F480221A601A6842F4803263
:1011A8001A60D7E7FFF77EFA0546554B1B6813F41C
:1011B800003FA3D0FFF776FA401B6428F5D9032037
:1011C80071E14F4B5B6813F4800FA6D14C4B1B6841
:1011D80013F0020F03D0E368012B40F06181484A05
:1011E800136823F0F803216943EAC10313602368F5
:1011F80013F0080F46D0636983B3414A536F43F035
:1012080001035367FFF74EFA05463D4B5B6F13F03A
:10121800020F37D1FFF746FA401B0228F5D9032001
:1012280041E1374A136823F0F803216943EAC1030F
:101238001360DCE7324A136823F001031360FFF7F9
:1012480031FA05462E4B1B6813F0020FCFD0FFF77B
:1012580029FA401B0228F5D9032024E1284A536FB4
:1012680023F001035367FFF71DFA0546244B5B6F14
:1012780013F0020F06D0FFF715FA401B0228F5D924
:10128800032010E1236813F0040F7DD01C4B1B6C66
:1012980013F0805F1ED11A4B1A6C42F080521A6408
:1012A8001B6C03F080530193019B0125154B1B68B0
:1012B80013F4807F10D0A368012B25D0002B3BD1DD
:1012C8000F4B1A6F22F001021A671A6F22F00402FC
:1012D8001A671EE00025E9E70A4A136843F4807399
:1012E8001360FFF7DFF90646064B1B6813F4807F8F
:1012F800E1D1FFF7D7F9801B6428F5D90320D2E0A4
:1013080000380240007000406E4A136F43F001033A
:101318001367A36833B3FFF7C5F90646694B1B6F1C
:1013280013F0020F2FD1FFF7BDF9801B41F288336C
:101338009842F3D90320B6E0052B09D0614B1A6F08
:1013480022F001021A671A6F22F004021A67E0E716
:101358005C4B1A6F42F004021A671A6F42F00102DE
:101368001A67D6E7FFF79EF90646564B1B6F13F030
:10137800020F08D0FFF796F9801B41F28833984294
:10138800F3D903208FE0FDB9A369002B00F08A8010
:101398004C4A926802F00C02082A58D0022B19D045
:1013A800484A136823F080731360FFF77BF90446FB
:1013B800444B1B6813F0007F47D0FFF773F9001BFD
:1013C8000228F5D903206EE03E4A136C23F08053BF
:1013D8001364D9E73B4A136823F080731360FFF75F
:1013E80061F90546374B1B6813F0007F06D0FFF7FD
:1013F80059F9401B0228F5D9032054E0E369226A11
:101408001343626A43EA8213A26A5208013A43EA22
:101418000243E26A43EA026343F00053294A5360F5
:10142800136843F080731360FFF73CF90446254BBB
:101438001B6813F0007F06D1FFF734F9001B022860
:10144800F5D903202FE000202DE000202BE01D4AD5
:101458005268012B29D002F48003E1698B4226D11E
:1014680002F03F03216A8B4223D1616A47F6C073B9
:101478001340B3EB811F1ED102F44031A36A5B080D
:10148800013BB1EB034F18D102F07062E36AB2EB93
:10149800036F14D1002006E001207047012002E00C
:1014A800012000E0002002B070BD0120FBE7012010
:1014B800F9E70120F7E70120F5E70120F3E701202C
:1014C800F1E700BF0038024008B5264B9B6803F0DF
:1014D8000C03042B41D0082B41D1224B5A6802F04F
:1014E8003F025B6813F4800F12D01E4B5968C1F39A
:1014F80088111D480023A1FB0001FEF761FE194B6E
:101508005B68C3F3014301335B00B0FBF3F008BD34
:10151800144B5868C0F388104FEA401CBCEB000C11
:101528006EEB0E0E4FEA8E1343EA9C634FEA8C1162
:10153800B1EB0C0163EB0E03DB0043EA5173C90006
:1015480011EB000C43F10003990200234FEA8C20B1
:1015580041EA9C51FEF734FED1E70348D7E7034838
:10156800D5E700BF0038024040787D010024F40030
:10157800002800F0A08070B50D460446524B1B6849
:1015880003F00F038B420BD24F4A136823F00F036B
:101598000B431360136803F00F038B4240F08D80F8
:1015A800236813F0020F17D013F0040F04D0474A32
:1015B800936843F4E0539360236813F0080F04D052
:1015C800424A936843F460439360404A936823F027
:1015D800F003A1680B439360236813F0010F31D027
:1015E8006368012B20D0022B25D0384A126812F0EC
:1015F800020F64D035498A6822F0030213438B60D6
:10160800FFF750F80646314B9B6803F00C036268FD
:10161800B3EB820F16D0FFF745F8801B41F28833F1
:101628009842F0D9032045E0284A126812F4003F96
:10163800E0D101203EE0254A126812F0007FD9D19E
:10164800012037E0204B1B6803F00F03AB420AD997
:101658001D4A136823F00F032B431360136803F02C
:101668000F03AB422DD1236813F0040F06D0174A9D
:10167800936823F4E053E1680B439360236813F005
:10168800080F07D0114A936823F46043216943EA9D
:10169800C1039360FFF718FF0C4B9B68C3F3031358
:1016A8000B4AD35CD8400B4B18600B4B1868FEF7FD
:1016B800BBFF002070BD012070470120FAE7012020
:1016C800F8E70120F6E700BF003C0240003802407E
:1016D800183300080800002004000020014B186897
:1016E800704700BF0800002008B5FFF7F7FF044B5C
:1016F8009B68C3F38223034AD35CD84008BD00BF6C
:10170800003802401033000808B5FFF7E7FF044B24
:101718009B68C3F34233034AD35CD84008BD00BF7B
:101728000038024010330008F0B583B0044606685C
:1017380016F001060DD0A74B9A6822F400029A60B1
:101748009A68416B0A439A60436B002B00F0398119
:101758000026256815F4002511D09E4AD2F88C3051
:1017680023F44013E16B0B43C2F88C30E36BB3F501
:10177800801F00F02881002B00F0278100252368B6
:1017880013F4801F0FD0934AD2F88C3023F440030F
:10179800216C0B43C2F88C30236CB3F5800F00F03A
:1017A800168103B90125236813F0807F00D0012634
:1017B80013F0200F40F01081236813F0100F0CD0A5
:1017C800844BD3F88C2022F08072C3F88C20D3F895
:1017D8008C20A16B0A43C3F88C20236813F4804F34
:1017E80008D07C4AD2F8903023F44033616E0B4322
:1017F800C2F89030236813F4004F08D0754AD2F825
:10180800903023F44023A16E0B43C2F89030236834
:1018180013F4803F08D06F4AD2F8903023F4401375
:10182800E16E0B43C2F89030236813F4003F08D0F0
:10183800684AD2F8903023F44003216F0B43C2F872
:101848009030236813F0400F08D0624AD2F89030E5
:1018580023F00303616C0B43C2F89030236813F044
:10186800800F08D05B4AD2F8903023F00C03A16CAB
:101878000B43C2F89030236813F4807F08D0554A90
:10188800D2F8903023F03003E16C0B43C2F890306B
:10189800236813F4007F08D04E4AD2F8903023F022
:1018A800C003216D0B43C2F89030236813F4806F96
:1018B80008D0484AD2F8903023F44073616D0B4346
:1018C800C2F89030236813F4006F08D0414AD2F868
:1018D800903023F44063A16D0B43C2F89030236825
:1018E80013F4805F08D03B4AD2F8903023F4405379
:1018F800E16D0B43C2F89030236813F4005F08D001
:10190800344AD2F8903023F44043216E0B43C2F896
:101918009030236813F4800F08D02E4AD2F8903004
:1019280023F08063A16F0B43C2F89030236813F44F
:10193800001F0DD0274AD2F8903023F00063E16FE2
:101948000B43C2F89030E36FB3F1006F00F0AA8048
:10195800236813F0080F00D0012513F4802F08D056
:101968001C4AD2F8903023F04073616F0B43C2F8E1
:101978009030236813F4000F09D0164AD2F890303B
:1019880023F08053D4F880100B43C2F8903026B966
:10199800236813F0007F00F005810E4A136823F0D6
:1019A80080631360FEF77EFE06460A4B1B6813F041
:1019B800006F79D0FEF776FE801B6428F5D90320E6
:1019C800F3E00126C5E60126D5E60125D7E601267E
:1019D800E7E600BF003802407F4B1A6C42F08052A5
:1019E8001A641B6C03F080530193019B7B4A1368B4
:1019F80043F480731360FEF755FE0746774B1B6868
:101A080013F4807F06D1FEF74DFEC01B6428F5D97C
:101A18000320CAE0704B1B6F13F4407315D0226B80
:101A280002F440729A4210D06B4B1A6F22F4407243
:101A3800196F41F480311967196F21F480311967E2
:101A48001A671B6F13F0010F12D1236B03F4407256
:101A5800B2F5407F1DD0604A936823F4F813936071
:101A68005D490B6F226BC2F30B0213430B67A3E6AE
:101A7800FEF718FE0746584B1B6F13F0020FE4D110
:101A8800FEF710FEC01B41F288339842F3D90320B9
:101A98008BE05148826822F4F812514919400A43F0
:101AA8008260DDE7012553E7236813F0010F13D0A7
:101AB800636B8BB9484AD2F88430D2F884106068D6
:101AC80003F4403343EA801301F070610B43A168CB
:101AD80043EA0173C2F88430236813F4002F03D05B
:101AE800E26BB2F5801F06D013F4801F1ED0236C62
:101AF800B3F5800F1AD1384AD2F88430D2F884105E
:101B0800606803F4403343EA8013E06843EA006303
:101B180001F0E0410B43C2F88430D2F88C3023F056
:101B28001F03616A01390B43C2F88C30236813F034
:101B3800807F11D0284AD2F88400D2F884106668D1
:101B480023691B0443EA861300F07060034301F025
:101B5800E0410B43C2F88430236813F0007F0DD0B6
:101B6800626823691B0443EA8213E26843EA02635A
:101B7800A26843EA0273184AC2F88430164A136806
:101B880043F080631360FEF78DFD0646124B1B6819
:101B980013F0006F06D1FEF785FD801B6428F5D988
:101BA800032002E0012D02D0002003B0F0BD0A4A54
:101BB800136823F080531360FEF774FD0546064B47
:101BC8001B6813F0005F0DD0FEF76CFD401B642806
:101BD800F5D90320E9E700BF003802400070004053
:101BE800FFFCFF0F236813F4002F01D0E26B22B132
:101BF80013F4801F1DD0236CDBB9354AD2F8883026
:101C0800D2F88810606903F4403343EA8013A0696E
:101C180043EA006301F0E0410B43C2F88830D2F890
:101C28008C3023F4F853A16A013943EA0123C2F83E
:101C38008C30236813F4001F03D0E36FB3F1006FF7
:101C480031D0236813F0080F19D0214AD2F8881030
:101C5800D2F88830606903F4403343EA801301F016
:101C680070610B43E16943EA0173C2F88830D2F826
:101C78008C3023F44033E16A0B43C2F88C30144AA9
:101C8800136843F080531360FEF70CFD0446104BB5
:101C98001B6813F0005F19D1FEF704FD001B6428D0
:101CA800F5D9032081E70A4AD2F88800D2F88810CB
:101CB8006569236A1B0443EA851300F070600343D7
:101CC80001F0E0410B43C2F88830BAE700206CE726
:101CD8000038024000230F2B00F2F48070B582B068
:101CE80066E085684FEA430E032404FA0EF425EAF9
:101CF8000405CC6804FA0EF42C438460446824EA92
:101D080002044A68C2F300129A40224342605DE02E
:101D1800DC08083450F8242003F00705AD004FF024
:101D28000F0E0EFA05FE22EA0E0E0A69AA4042EAD2
:101D38000E0240F824205DE0092200E0002202FAA9
:101D48000EF22A430234604D45F824205F4A946815
:101D58006FEA0C0224EA0C054E6816F4801F01D0C5
:101D68004CEA0405594CA560E46802EA04054E688B
:101D780016F4001F01D04CEA0405544CE560646871
:101D880002EA04054E6816F4003F01D04CEA040547
:101D98004E4C6560246822404D6815F4803F01D0A0
:101DA8004CEA0402494C226001330F2B00F2888070
:101DB80001229A400C6804EA020C32EA0404F3D1C6
:101DC8004C6804F00304013C012C8AD94A6802F0EB
:101DD8000302032A09D0C4685D000322AA4024EA4A
:101DE80002048A68AA402243C2604A6802F00302D9
:101DF800022A8DD004684FEA430E032202FA0EF23B
:101E080024EA02044A6802F0030202FA0EF22243AC
:101E180002604A6812F4403FC6D02D4A546C44F41C
:101E280080445464526C02F480420192019A9C08E6
:101E3800A51C254A52F8255003F0030E4FEA8E0ED2
:101E48000F2202FA0EF225EA0205224A90423FF4D6
:101E580075AF02F58062904222D002F5806290420E
:101E680020D002F5806290421ED002F58062904236
:101E78001CD002F5806290421AD002F5806290422E
:101E880018D002F58062904216D002F58062904226
:101E980014D002F5806290423FF44EAF0A224EE71A
:101EA80001224CE702224AE7032248E7042246E7D8
:101EB800052244E7062242E7072240E708223EE7D8
:101EC80002B070BD704700BF00380140003C0140BF
:101ED80000380240000002400AB1816170470904DD
:101EE80081617047436901EA030221EA030141EA7B
:101EF80002418161704770B50446866DFEF7D2FBDA
:101F080094F83530DBB2022B06D0802363650023BA
:101F180084F83430012070BD05462268136823F028
:101F2800160313602268536923F080035361236CFE
:101F3800E3B12268136823F008031360226813686A
:101F480023F00103136023681B6813F0010F11D0FD
:101F5800FEF7A8FB431B052BF5D920236365032057
:101F680084F83500002384F83430D4E7A36C002BC0
:101F7800DFD1E3E7E26D3F239340B360012384F8A8
:101F88003530002084F83400C5E790F83530DBB2EE
:101F9800022B03D08023436501207047052380F876
:101FA80035300268136823F001031360002070477E
:101FB80010B582B01B4B1A6C42F080521A641B6C2D
:101FC80003F080530193019B174A136843F480334D
:101FD8001360FEF767FB0446134B5B6813F4803FFE
:101FE80008D1FEF75FFB001BB0F57A7FF4D9032018
:101FF80002B010BD0C4A136843F400331360FEF7B7
:1020080051FB0446084B5B6813F4003F07D1FEF709
:1020180049FB001BB0F57A7FF4D90320E8E70020DC
:10202800E6E700BF0038024000700040034AD2F8DB
:10203800883043F47003C2F88830704700ED00E040
:1020480072B6FEE700B595B03022002108A800F06E
:1020580094F8002303930493059306930793234B63
:102068001A6C42F080521A641B6C03F0805301937F
:10207800019B1F4B1A6842F440421A601B6803F424
:1020880040430293029B012308934FF48033099342
:1020980002230E934FF480020F92192210924FF4EC
:1020A800D87211921293139308A8FEF7F3FFB0B9F0
:1020B800FFF77EFFA8B90F2303930223049300239D
:1020C80005934FF4A05306934FF4805307930721C9
:1020D80003A8FFF74DFA30B915B05DF804FBFFF718
:1020E800AFFFFFF7ADFFFFF7ABFF00BF00380240BF
:1020F8000070004008B5FEF7BDFAFFF7A3FFFEF732
:1021080095F9FEF7F5F910210548FFF7EBFE0821D0
:102118000448FFF7E7FE6E20FEF7CAFAF3E700BFB0
:10212800000C024000100240DFF834D00D480E4980
:102138000E4A002302E0D458C4500433C4188C4219
:10214800F9D30B4A0B4C002301E013600432A2427E
:10215800FBD3FFF76BFF00F019F8FFF7CBFF7047D1
:1021680000000520000000205C000020DC3300088F
:102178005C00002040020020FEE702440346934230
:1021880000D1704703F8011BF9E7000070B50D4D49
:102198000D4C641BA4100026A64209D10B4D0C4C13
:1021A80001F0A6F8641BA4100026A64205D170BD54
:1021B80055F8043B98470136EEE755F8043B984735
:1021C8000136F2E7D4330008D4330008D4330008CA
:1021D800D8330008FEE700BF2DE9F047089D0E46FA
:1021E80004460F46002B4AD194468C45B2FA82F237
:1021F80060D942B1C2F12003974020FA03F30CFAE8
:1022080002FC1F4394404FEA1C4E1FFA8CF6B7FBA2
:10221800FEF1230C0EFB117743EA074301FB06F09E
:1022280098420AD91CEB030301F1FF3780F01581AE
:10223800984240F21281023963441B1AA4B2B3FBDC
:10224800FEF00EFB103344EA034400FB06F6A642F8
:102258000AD91CEB040400F1FF3380F00081A64288
:1022680040F2FD806444023840EA0140A41B00218A
:102278001DB1D4400023C5E90043BDE8F0878B4277
:1022880005D90DB1C5E9000100210846F5E7B3FA03
:1022980083F1002946D1B34202D3824200F2F5808D
:1022A800841A66EB030201201746002DE5D0C5E924
:1022B8000047E2E7002A40F09380A1EB0C034FEAC5
:1022C8001C471FFA8CFE0121B3FBF7F607FB1630FB
:1022D800230C43EA00430EFB06F0984208D91CEB96
:1022E800030306F1FF3802D2984200F2D080464636
:1022F8001B1AA4B2B3FBF7F007FB103344EA0344FC
:102308000EFB00FEA64508D91CEB040400F1FF33C0
:1023180002D2A64500F2B6801846A4EB0E0440EAA5
:102328000640A5E7C1F120078B4022FA07FC4CEADA
:10233800030C06FA01FE20FA07F426FA07F344EA2A
:102348000E0400FA01F84FEA1C404FEA1449B3FBA7
:10235800F0FE1FFA8CF600FB1E3349EA03430EFB1E
:1023680006F9994502FA01F20BD91CEB03030EF1A9
:10237800FF3A80F08580994540F28280AEF1020EE6
:102388006344A3EB0909A4B2B9FBF0F300FB13996A
:1023980044EA094403FB06F6A64208D91CEB0404E8
:1023A80003F1FF3068D2A64266D9023B644443EA8F
:1023B8000E40A41BA0FB02E6B4427346B14652D3BA
:1023C8004FD05DB1B8EB030264EB090404FA07F7D8
:1023D80022FA01F31F43CC40C5E9007400214CE701
:1023E800C2F1200120FA01F30CFA02FC26FA01F1ED
:1023F800964033434FEA1C471FFA8CFEB1FBF7F0B7
:1024080007FB1016190C41EA064100FB0EF68E4236
:1024180004FA02F408D91CEB010100F1FF382DD2AF
:102428008E422BD902386144891B9BB2B1FBF7F667
:1024380007FB161143EA014306FB0EF1994208D93E
:102448001CEB030306F1FF3814D2994212D9023E5D
:1024580063445B1A46EA004136E73946EDE618461A
:1024680002E7F045ADD2BEEB020366EB0C0601387D
:10247800B146A6E74646ECE7034698E74046D3E769
:10248800D6467EE76444023847E708460DE7023E31
:1024980063442DE703685A004CBF43F0004323F020
:1024A80000431844704700BF2DE9F04759B301F1C4
:1024B800FF380546164647464FF0000A0AEB070163
:1024C80001EBD171491005EBC1094846FFF7E2FF5E
:1024D80088454FEAC104034610D004F10800B3420E
:1024E800284407D8FFF7D6FF0138B04208D201F1D7
:1024F800010AE3E78A4506D04F1EDFE7B042F9D864
:102508004846BDE8F0874FF000094846BDE8F08727
:10251800012809D0022805D0044B00280CBF184612
:10252800002070470248704702487047E92B0008AE
:10253800F92B0008F12B000830B5224B83B0044674
:102548008D1E43B301A92846AFF30080F0B101996D
:102558002A46FFF7A9FF0146C0B1FFF79BFF4B686A
:10256800A064012B2BD0002B01F1040025DBFFF721
:1025780091FF002323650368E064002B12DBFFF75B
:1025880089FF03460020236103B030BD00230920E2
:10259800236103B030BD0C4B0C49C91AC910184649
:1025A8000191D5E7C3F30360FFF7B2FF031E0CBF29
:1025B80009200020236103B030BD0123DAE700239E
:1025C8000520E0E70000000034330008D433000899
:1025D8000368DA0710B5044606D49B0700F15000DB
:1025E80009D5FDF719FE2368590709D51A070ED52D
:1025F800DB0613D510BDFDF707FE23685907F5D490
:1026080004F1D800FDF710FE23681A07F0D404F58A
:10261800AC70FDF711FE2368DB06EBD404F5EC7013
:10262800BDE81040FDF74CBE0346006800B11844F1
:10263800704700BF704700BF70B504460E46316C46
:102648002046FFF779FF054688B9326C6261236935
:1026580032462146012098470828F0D0072806D19D
:102668002846316CFFF7E6FF301DFDF7C1FD00F08D
:10267800D5FD00BF2DE9F04701F1040CC768D0F87B
:10268800188006469146BCE80F00ADF5767D03AC90
:102698000FC4BCE80F000FC4BCE80F000FC49CE8CF
:1026A8000F0002AD4FF0000E84E80F00C5F800E0FF
:1026B80021E02B6C73614FF4F47229467CA800F07A
:1026C800F9FD33697CAA3146504698478A9BAB642A
:1026D8004946CDE900588246334601203246B8477C
:1026E800814630BB4FF4F4727CA9284600F0E2FD25
:1026F800BAF1080F1AD1296C3046FFF71DFF09F10E
:10270800090904465FFA89FA0028D2D0AB6BAB649A
:102718003246CDE9005833464AF010010120B84747
:1027280038B920460DF5767DBDE8F087BAF1070F78
:1027380005D0092420460DF5767DBDE8F08748468A
:10274800296CFFF777FF03A8FDF752FDF0B5CB6BB7
:102758000B6401F1040C0E460546BCE80F00FBB003
:1027680001AC0FC4BCE80F000FC4BCE80F000FC4D5
:102778009CE80F004FF0FF3784E80F00009706E051
:102788002B696A46294698470828044608D11099B3
:102798002846FFF7D1FE0028F2D009207BB0F0BD13
:1027A8006846FFF715FF062CF7D131462846FFF794
:1027B80043FF00BFC160D96B8261196400221946CA
:1027C800FFF758BF70B5C66843690B64AEB90369B3
:1027D8000A4604460D46014602209847072805D0B8
:1027E80008280FD129462046FFF726FF3046296CD6
:1027F800FFF720FF281DFDF7FBFC0122FFF73AFF3A
:1028080000F00CFD00F00AFDC26822B1CA6B0A6430
:102818000022FFF72FBFFFF799BF00BF052915D882
:10282800DFE801F00A031403030501207047009A4A
:10283800436C13600020704743B90F2A06D800EB99
:10284800820200205368009A136070470220704784
:1028580000B585B00A46002303A900911946FFF781
:10286800DDFF039805B05DF804FB00BF052915D806
:10287800DFE801F00A031403030501207047009BF9
:102888001B6843640020704743B90F2A06D8009B91
:1028980000EB82021B6853600020704702207047DB
:1028A80010B584B0002303AC039200940A4619467D
:1028B800FFF7DCFF04B010BD70B5D36B136402F1F1
:1028C800040C05460C46BCE80F00ADF5107D0DF173
:1028D8005C0EAEE80F00BCE80F00AEE80F00BCE8E5
:1028E8000F00AEE80F009CE80F004FF0FF368EE8AF
:1028F8000F00169610E0FFF7D3FF214616A8A84749
:10290800034616AA0820694683B9049B98470528F8
:1029180006460CD0092809D026996846FFF70CFE10
:1029280003460C216A4616A8002BE4D0092616A8EF
:10293800FFF74EFE30460DF5107D70BD2DE9F04FC6
:102948001646CA6C89B00D4652F8041B069200F070
:10295800030C002B79D00C0C8DF81D400904E4B24F
:10296800059102EB840202218DF81C10296DBCF13F
:10297800020F08BFAA6B11F0010809D005A930465B
:1029880000F0CEFA002856D1082009B0BDE8F08F33
:102998001768002FF2D000F00801CDE90118E346CE
:1029A8009A46BAF1020F4CD01788548802F10409EC
:1029B800AA6C24F001030F21304603EB0208FFF74D
:1029C80047FF80453BD827F0010202EB080383420A
:1029D80094BF00230123640004F0020407F00107F8
:1029E8002743012F4ED0022F35D027BBBBF1000F54
:1029F80002D0002B40F0D38009F104021768002FA1
:102A0800CFD105A93046DDF8088000F089FA90B9E1
:102A1800B8F1000FB8D00F213046FFF719FF0E218B
:102A280002463046FFF73CFF6C4A0F213046FFF75D
:102A380037FF072000E0092009B0BDE8F08F002328
:102A4800C9E7546802F10809B2E7090205918DF84F
:102A58001D30032188E7D9F8004024F00048BBF175
:102A6800000F47D12BB1019B002B5CD0B8F1000FB0
:102A780059D0002C01DA09F1040908F1010209EB27
:102A88008202BBE7BBF1000F1CD1C3B1D9F80430F7
:102A9800D9F80020991C4FEAD272CCD005F158041D
:102AA8000133049400F08E8009F10400FFF7BCFDA7
:102AB80004AB01462846AFF30080002859D109F13C
:102AC80008029BE70D213046FFF7C2FE2C6A8442BC
:102AD800F5D1AB6A9945F2D14846FFF7DBFC0F21E7
:102AE80002463046FFF7DCFE2A4600213046FFF753
:102AF800D7FE9EE70D213046FFF7AAFE2F6A8742D0
:102B0800B7D1AB6A9945B4D100240423C5E90B4376
:102B18004B44C5F828806B63D9F80030A34258DBD2
:102B280001230293A9E705F15803CDF80CB009F188
:102B38000407B34600241E460BE038460496FFF708
:102B480073FD0022014604AB2846AFF3008004372A
:102B5800F8B9444504F10104EFD10D215846FFF7B7
:102B680077FE049BC5F828900246C5E9082306208D
:102B780062E704460D213046FFF76AFE049E28628C
:102B8800022C04BFEE6205F12C06C5E9096906208E
:102B980052E75E46D9F80040DDF80CB069E74846D0
:102BA800FFF778FC09F104030446AB632846AFF34A
:102BB800008000283FF43FAF22460F213046FFF740
:102BC8006FFE36E730460D21FFF742FE26462862A3
:102BD800DBE708F1010209EB82007EE70000000054
:102BE8000023FFF7ABBE00BF0123FFF7A7BE00BF5E
:102BF8000223FFF7A3BE00BF2DE9F0410646C4B08B
:102C08001446052900F2D880DFE811F012002D00E3
:102C1800D6006C0091000600836B002C40F0CC803D
:102C280053F8042B42648363002044B0BDE8F0816C
:102C3800002B40F0C180856B1FFA84FC012006F14F
:102C4800040E00FA03F111EA0C0F2A4604D052F8D8
:102C5800041B4EF8231015460133102BF1D1A7049D
:102C6800E2D4B563E0E7012B4FEA1447A4B200F0C1
:102C78008380052B40F0A08007EB0408B8F1200FF3
:102C880000F29A800F2F40F29980002CCCD0026875
:102C9800500700F11881019302AD2846FDF7C8FAE4
:102CA8004FEA440CA7F11000B16B019B0CF1FF3CFB
:102CB80005EBC0000CF1010C043801EB8C0251F853
:102CC800044B40F8044F9142F9D1012B00F0DE800B
:102CD8000F2FB16302D822A8FDF79EFA2846FDF708
:102CE800A3FAA1E7032B67D1A7B207EB1443102B74
:102CF8004FEA144460D80368190700F1BF8022AD79
:102D08002846FDF7BBFA7A00B06B05EBC404531EE6
:102D180042B1011B625844F8042B013B5A1CF9D1FB
:102D280000EBC700B0632846FDF786FA7CE7002B66
:102D380042D1102C40D80368DD0600F1978022ADFF
:102D48002846FDF7C7FAB76B294600234FF0010C58
:102D58000CFA03F22242384603F1010303D050F87B
:102D6800042B0A600746042B01F10401F0D1B76374
:102D78002846FDF7A5FA57E73A19102A1CD8102F4C
:102D88001AD00268D00708D5304622F0030240F86E
:102D9800502B0193FDF73CFA019B019322AD284685
:102DA800FDF736FAB26B019B002C58D10432B2639E
:102DB8002846FDF729FA37E7022036E7B8F1100F61
:102DC800026865D9D40772D522F0010242F00202E6
:102DD80040F8502B0193FDF723FA3268019B12F05B
:102DE800040F66D122AD28460193FDF719FA02A80F
:102DF800FDF71EFAC7F110014900B26B019BA8F15B
:102E0800100C4C1E05EBC7000134043802EB84019A
:102E180052F8044B40F8044F8A42F9D1BCF1000F34
:102E28005AD0102F384638BF10204FEA4C0C1038B3
:102E380002AD0CF1FF3C05EBC0003BE7304622F049
:102E4800010242F0020240F8502B22AD0193FDF737
:102E5800E7F92846FDF7E4F9B26B24B3019B640057
:102E6800013C05EBC7004FF0000CCDE723F0100341
:102E7800036000F5EC70FDF72DFA60E723F0080316
:102E8800036000F5AC70FDF7F9F938E722AD8DE77E
:102E9800D107D3D422AD28460193FDF7C1F9B26B0F
:102EA800019B002CDBD12846FDF7B6F9BCE6540798
:102EB80098D5304622F0040240F8D82B0193FDF74C
:102EC800B7F9019B8EE7304622F0040240F8D82B70
:102ED8000193FDF7ADF9DFE6012B3FF467AF0F2F44
:102EE800B2633FF6A1AEDEE7027A03467AB9427AC8
:102EF800A2B14168013A10B44272086803220C1D5D
:102F08001A7202025C60000E10BC1A6070470068FA
:102F1800013A1A7202021A60000E7047B020704718
:102F28002DE9F043064685B00D464FF000082846C7
:102F3800FFF7DAFFB028044600F01C8107065BD5CE
:102F480000F0F003A02B1AD030D8802B00F082803C
:102F5800902B27D100F00D030D2B23D002AF0023B7
:102F680000F00F02194600973046FFF757FC002380
:102F780000970D2219463046FFF778FCD7E7C34380
:102F880003F007034FF47F621A41010702F47F62DE
:102F980001D542F48042002319463046FFF72CFE43
:102FA8000028C4D0092005B0BDE8F083B02B68D054
:102FB800C02B3DD1C62800F0CA80C72800F0DF80AA
:102FC80000F0F803C02B00F0EC80C82800F0F78070
:102FD800C928E7D12846FFF787FF020300F00F0052
:102FE80002F4702201300243012105233046FFF725
:102FF80003FE00289BD0D5E78300DBB21F1D0DF12F
:10300800080900231946CDF800900D223046FFF735
:1030180005FC029BCDF8009060064CBFDF1BFF1833
:1030280000230D22194630460297FFF71FFC7EE762
:1030380000F0F803D02BB5D100F0070201320523C8
:1030480042F4002201213046FFF7D6FD00283FF464
:103058006EAFA7E72846FFF747FF24022043B0F5E5
:10306800004F9FD004010023A2B219463046FFF753
:10307800C3FD002896D114F4004F18BF4FF0010883
:1030880055E7A0F1B103042B00F2B580DFE803F0A7
:103098005529160C030003AA0023009219460D2295
:1030A8003046FFF7BBFB42E700231A4605213046AE
:1030B800FFF7A2FD00283FF43AAF73E72846FFF771
:1030C80013FF020300F00F00013002F47022012305
:1030D800024319463046FFF78FFD00283FF427AF1B
:1030E80060E700230DF108090D221946CDF800907C
:1030F8003046FFF793FB2846FFF7F6FE0206029CD0
:103108004FF002070BD500F07F00B8400444284672
:103118000294FFF7E9FE030607F10707F3D4B84066
:10312800002304F501740444CDF800900D221946DB
:1031380030460294FFF79AFBF9E62846FFF7D4FEDB
:10314800431EDBB20E2B02467FF625AF2AE7284640
:10315800FFF7CAFE020300F00F00013002F47022EC
:103168000323024319463046FFF746FD00283FF483
:10317800DEAE17E7B8F1000F2DD0002013E7284680
:10318800FFF7B2FE431EDBB20E2B02463FF60AAF34
:10319800002304213046FFF72FFD00283FF4C7AE77
:1031A80000E700F00F020132032342F420221946FF
:1031B8003046FFF721FD00283FF4B9AEF2E6284675
:1031C800FFF792FE00F0F00200F00F031032013317
:1031D80043EA023208E702AC4346414600940E2215
:1031E8003046FFF71BFB0F2200944346414630460A
:1031F800FFF73CFBC1E700F0FC03B42B3FF4D2AE71
:1032080000F007020132012342F400221946304639
:10321800FFF7F2FC00283FF48AAEC3E608B50620A3
:1032280000F02CF80120FEF7D5FF1F2938B5054618
:103238000C4604D9162303604FF0FF3038BDC26B2B
:1032480012B152F821304BB9284600F031F8224625
:1032580001462846BDE8384000F018B8012B0AD0CE
:10326800591C03D1162303600120E7E7002142F827
:103278002410204698470020E0E70000024B014652
:103288001868FFF7D2BF00BF0C00002038B5074D03
:1032980000230446084611462B6000F021F8431C21
:1032A80002D12B6803B1236038BD00BF3C02002067
:1032B80000F00EB80A44914200F1FF3300D1704784
:1032C80010B511F8014B03F8014F9142F9D110BD27
:1032D800024B58221A604FF0FF3070473C02002022
:1032E800024B58221A604FF0FF3070473C02002012
:1032F800F8B500BFF8BC08BC9E467047F8B500BFDB
:08330800F8BC08BC9E467047AA
:1033100000000000010203040000000000000000A3
:0833200001020304060708097D
:0C33280008B10181B0B00084000000007A
:1033340014EDFF7F0100000010EDFF7F0084148076
:10334400B8EDFF7FE0FFFF7FE4EDFF7F01000000A9
:10335400ECF1FF7FB0A902807CF2FF7FB0B0A880BF
:10336400CCF2FF7F01000000D4F2FF7FB0B0AA804E
:1033740008F3FF7FAE75B280D8F3FF7FAB3F3A808E
:1033840038F4FF7F0100000040F4FF7FB0B0AA8052
:103394007CF4FF7F0100000024F5FF7FAA0FB280B8
:1033A400A0F5FF7FB0AF08803CF8FF7F010000006C
:1033B4004CF8FF7FAC3F038034FBFF7F010000002B
:1033C40064FBFF7FB0AD048058FEFF7F0100000066
:0433D40011040008D8
:0433D800E9030008FD
:1033DC0001000000100000000024F4001000002088
:1033EC0000000000040100206C010020D40100202A
:1033FC0000000000000000000000000000000000C1
:10340C0000000000000000000000000000000000B0
:10341C0000000000000000000000000000000000A0
:0C342C0000000000000000000000000094
:04000005080021319D
:00000001FF
