:020000040800F2
:100000000007002095020008A11D0008891C0008B7
:10001000991D000881040008392300080000000031
:10002000000000000000000000000000B11D0008FA
:100030008904000800000000A91D0008B91D00087F
:10004000AF020008AF020008AF020008AF020008CC
:10005000AF020008AF020008AF020008AF020008BC
:10006000AF020008AF020008AF020008AF020008AC
:10007000AF020008AF020008AF020008AF0200089C
:10008000AF020008AF020008AF020008AF0200088C
:10009000AF020008AF020008AF020008AF0200087C
:1000A000AF020008AF020008AF020008AF0200086C
:1000B000AF020008AF020008AF020008AF0200085C
:1000C000AF020008AF020008AF020008AF0200084C
:1000D000AF020008AF020008AF020008AF0200083C
:1000E000AF020008AF020008AF020008AF0200082C
:1000F000AF020008AF020008AF020008AF0200081C
:10010000AF020008AF020008AF020008AF0200080B
:10011000AF020008AF020008AF020008AF020008FB
:10012000AF020008AF020008AF020008AF020008EB
:10013000AF020008AF020008AF020008AF020008DB
:10014000AF020008AF020008AF020008AF020008CB
:10015000AF020008AF020008AF0200082923000820
:10016000AF020008AF020008AF020008AF020008AB
:10017000AF020008AF020008AF0200080000000054
:10018000AF020008AF020008AF020008AF0200088B
:10019000AF020008AF020008AF020008AF0200087B
:1001A000AF020008AF020008AF020008AF0200086B
:1001B000AF020008AF020008AF020008AF0200085B
:1001C000AF020008AF02000800F002F800F052F899
:1001D00014A696E8000CB244B344DA4501D100F00D
:1001E00049F8BAE80F000FA696E83000A5EB040521
:1001F00004EB0607AAEB0704A7F101074FEA151560
:100200004FEA3414A4F10104AC4201D300F032F8F7
:1002100013F0010F18BFFB1A43F0010300F001F8BF
:10022000DBE718476C2200008C220000103A24BF44
:1002300078C878C1FAD8520724BF30C830C144BF4B
:1002400004680C6070470000704700000023002421
:1002500000250026103A28BF78C1FBD8520728BFD6
:1002600030C148BF0B6070471FB502F0E8F81FBDF2
:1002700010B510BD00F0D0F81146FFF7F5FF02F001
:10028000C3F800F0EEF803B4FFF7F2FF03BC02F08E
:10029000B7F800000948804709480047FEE7FEE735
:1002A000FEE7FEE7FEE7FEE7FEE7FEE7FEE7FEE726
:1002B00004480549054A064B70470000C11D000867
:1002C000C9010008000100200007002000030020F1
:1002D0000003002053EA020C00F069802DE9F04B86
:1002E0004FF00006002B1FBFB3FA83F503FA05F4A5
:1002F00024FA05F65E4012BF1643B2FA82F502FAFE
:1003000005F4C5F120051EBF22FA05FC44EA0C04E1
:10031000203556EA044C4FEA144418BF641C4FF0D1
:1003200000084FF00009904271EB030C39D300290B
:1003300019BFB1FA81F701FA07F6B0FA80F700FAAF
:1003400007F6C7F120071EBF20FA07FC46EA0C0695
:100350002037B6FBF4FCA7EB0507103F07F01F0B97
:10036000CBF120062CFA06F60CFA0BFB44BFB34681
:100370000026202FA4BF5E464FF0000B5BEA060C60
:1003800008BF4FF0010B19EB0B0948EB0608ABFB5C
:10039000027C06FB02CC0BFB03CCC01B71EB0C01F7
:1003A000C1E70B46024641464846BDE8F08B13B50F
:1003B000084318BF4FF0FF300146AFF30080BDE89F
:1003C0001C4070474FF0000200B513469446964615
:1003D000203922BFA0E80C50A0E80C50B1F1200158
:1003E000BFF4F7AF090728BFA0E80C5048BF0CC006
:1003F0005DF804EB890028BF40F8042B08BF704764
:1004000048BF20F8022B11F0804F18BF00F8012BD5
:100410007047704770477047754600F02BF8AE463E
:1004200005006946534620F00700854618B020B500
:10043000FFF73EFFBDE820404FF000064FF00007F9
:100440004FF000084FF0000BAC46ACE8C009ACE838
:10045000C009ACE8C009ACE8C00921F007018D462D
:10046000704710B50446AFF300802046BDE8104049
:10047000FFF709BF0048704710000020000000008F
:10048000FEE70000000000007047000000000000D0
:10049000EFF3108072B6000070B50446866D00F070
:1004A00053F994F83510022928D105462068216CAB
:1004B0000268002922F016020260426922F08001DF
:1004C000416101D1A16C19B1016821F008010160FD
:1004D000016821F00101016020680068C00715D0A3
:1004E00000F032F9401B0628F6D320206065032077
:1004F00084F83500002184F8341070BD80206065D8
:100500000120002184F8341070BD00BFE06D3F2150
:1005100001FA00F0B060012084F8350000200021CD
:1005200084F8341070BD000090F83510022909D10C
:10053000052180F835100068016821F00101016093
:1005400000207047802141650120704700000000B5
:10055000B0B5044600F0F8F840F200010546C2F2DA
:100560000001621C097818BF0C4400BF00F0ECF8D1
:10057000401BA042FAD3B0BD2DE9F04F82B000F18C
:100580003E4342F2004603F1FF738705C4F20206C0
:100590000A22B04247EA932708BF0922092F4FF0E9
:1005A000000E38BF3A46012400270026009206E0DC
:1005B00001360237102E0EF1040E00F0AF8004FA5F
:1005C00006FB0D6815EA0B08F2D0D1F804A003224F
:1005D0000AF0030CBA40ACF101056FEA0209012DE3
:1005E00010D88268CD6802EA0902BD402A438260C1
:1005F000CAF30015426822EA0B02B5402A43426062
:1006000006E000BFBCF1030F02D14FF0030C22E063
:10061000C2688D6802EA0902BD40BCF1020F42EADD
:100620000502C26017D16FF003020EF01C0302EA4C
:1006300056020F25024405FA03FAD2F820C00D69CC
:100640002CEA0A0C05FA03F343EA0C031362D1F80F
:1006500004A00AF0030C02680CFA07F302EA09028C
:100660001AF4403F42EA03020260A1D043F6440379
:1006700043F60049C4F20203C4F201094FF6084AE6
:100680000F241A68CFF6FF7A42F480421A601A6883
:1006900026F0030302F48042019209EB0302019B5E
:1006A0000EF00C0352F80AC004FA03F5009C2CEA81
:1006B000050504FA03F32B4342F80A30D9F808C0C1
:1006C0004B684CEA0805DA0258BF2CEA080543F6E5
:1006D0000C4C9C02C4F2010CC9F80850DCF8002054
:1006E00042EA080558BF22EA08059C034FF00104BE
:1006F000CCF80050D9F8042042EA080558BF22EA95
:100700000805DB03C9F80450D9F8002042EA0805BF
:1007100058BF22EA0805C9F8005049E702B0BDE811
:10072000F08F000000000000426902EA01039143DB
:1007300041EA034181617047002A08BF09048161D1
:10074000704700000000000040F2F800C2F2000014
:10075000006870470000000040F2000040F2F8011D
:10076000C2F20000C2F2000100780A68104408607A
:10077000704700000000000080B5032000F088F8FA
:10078000002000F005F800F027F8002080BD0000F0
:1007900070B540F2000640F20801C2F20006C2F253
:1007A00000014FF47A73044632780968B3FBF2F221
:1007B000B1FBF2F1084600F0A7FE0F2C4FF0010547
:1007C00008D838B94FF0FF3000222146002500F04C
:1007D0002FF87460284670BD82B043F64000C4F222
:1007E0000200016841F080510160016801F0805110
:1007F00001910199416841F480414160406800F4F1
:10080000804000900520009902B000F041B800003F
:10081000002848BF70471C214EF2001300F01F0251
:1008200001EAD000CEF2000301219140C15070478F
:1008300070B54EF60C5C4FF0FF36CEF2000C00F1B6
:10084000604505F56445DCF80030C3F3022E8EF0F8
:100850000703042B28BF0423BEF1030406FA03F3A5
:1008600021EA030100F00F0338BF0024043B0028F5
:10087000634406FA04F048BF03F10C05A14022EAE4
:10088000000008430001287070BD00000000000057
:100890004EF60C514FF6FF03CEF200010A681A40E3
:1008A00060F30A2242F0806040F0FD7008607047FB
:1008B000B0B582B043F6400047F20005C4F2020032
:1008C000C4F20005016841F080510160006800F049
:1008D000805001900198286840F480302860FFF72C
:1008E00033FF04466868C00306D4FFF72DFF001BE2
:1008F000B0F57A7FF6D910E0286840F4003028601F
:10090000FFF722FF044600BF6868800308D4FFF7A2
:100910001BFF001BB0F57A7FF6D9032002B0B0BDF3
:10092000002002B0B0BD00002DE9F04782B0D0F841
:1009300000A043F6900604465FEACA70C4F20206BD
:100940001AD14FF000095FEA0A3028D556F8040C96
:10095000E16B20F44010B1F5801F40EA010046F839
:10096000040CB1FA81F04FEA501808BF4FF00109AA
:100970005FEACA2018D429E056F8880C20F4000059
:1009800046F8880C606B56F8881C014346F8881CB2
:10099000B0FA80F04FEA50195FEA0A30D6D44FF02F
:1009A00000085FEACA2011D556F8040C216C20F427
:1009B0004000B1F5800F40EA010008BF4FF0010987
:1009C000002908BF4FF0010846F8040C5FEA8A606E
:1009D00057465CD556F8500C47F2000740F080505F
:1009E00046F8500CC4F2000756F8500C00F0805046
:1009F00001900198386840F480703860FFF7A4FED9
:100A0000054600BF3868C00506D4FFF79DFE401BB1
:100A10006428F7D934E200BF56F8200C10F4407077
:100A20001BD0216B01F44071884216D056F8200C7F
:100A300056F8201C41F4803146F8201C56F8201C42
:100A400020F4407021F4803146F8201C46F8200C38
:100A500056F8200CC00740F095814FF6FF432768F9
:100A6000206B56F8882CC0F6FF7300F4407122F416
:100A7000F81203406FF31F30B1F5407F08BF1A43EF
:100A800046F8882C56F8201C084346F8200CF80637
:100A900028D4780434D438043AD4F80340D4B803C2
:100AA00046D478064CD4380652D4F80558D4B80544
:100AB0005ED4780564D438056AD4F80470D4B804D8
:100AC00077D478027ED4B80200F18580780300F1F3
:100AD0009180380200F197805FEACA1040F19D8052
:100AE000AAE000BF56F8040C20F0807046F8040C11
:100AF000A06B56F8041C084346F8040C7804CAD5C9
:100B00003068616E20F44030084330603804C4D54A
:100B10003068A16E20F4402008433060F803BED551
:100B20003068E16E20F4401008433060B803B8D557
:100B30003068216F20F44000084330607806B2D559
:100B40003068616C20F00300084330603806ACD593
:100B50003068A16C20F00C0008433060F805A6D581
:100B60003068E16C20F0300008433060B805A0D553
:100B70003068216D20F0C0000843306078059AD5B8
:100B80003068616D20F4407008433060380594D5BA
:100B90003068A16D20F4406008433060F8048ED5C1
:100BA0003068E16D20F4405008433060B8047FF5B0
:100BB00088AF3068216E20F44040084330607802EE
:100BC0007FF581AF3068A16F20F08060084330600E
:100BD000B8027FF57BAF3068E16F20F00060B1F1C3
:100BE000006F40EA010008BF4FF001083060780351
:100BF0007FF56FAF3068616F20F040700843306060
:100C000038027FF569AF3068D4F8801020F080504A
:100C1000084330605FEACA100ED4B9F1000F08BF74
:100C200017F0007008D138071AD4B8F1000F17D1A7
:100C3000002002B0BDE8F08756F8900C20F08060EC
:100C400046F8900CFFF780FD054600BF56F8900C63
:100C5000000119D5FFF778FD401B6428F6D90FE194
:100C600056F8900C20F0805046F8900CFFF76CFD81
:100C7000054600BF56F8900C800015D5FFF764FDBF
:100C8000401B6428F6D9FBE02068C10703D0616BE4
:100C9000002900F08B80010340F19C80E16BB1F5ED
:100CA000801F40F097809BE02068010301D5E16B35
:100CB00019B1C1021ED5216CE1B956F8081C56F8CD
:100CC000082C01F4403102F0E042D4E90537114428
:100CD000A26A41EA83116FF0FF0341EA076146F817
:100CE000081C56F8041C03EB022221F4F8511143AE
:100CF00046F8041C810214D5E16FB1F1006F10D1E8
:100D000056F8081C56F8082C01F0706102F0E04219
:100D10006369276A114441EA831141EA074146F8B1
:100D2000081C000718D556F8080C56F8081C00F0E7
:100D3000706001F4403162690844E16940EA821060
:100D4000E36A40EA017046F8080C56F8040C20F4F7
:100D50004030184346F8040C56F8900C40F0805090
:100D600046F8900CFFF7F0FC044600BF56F8900CD4
:100D700080003FF55DAFFFF7E7FC001B6528F5D36A
:100D80007EE000BFFFF7E0FC054641F2883700BF78
:100D900056F8200C80073FF560AEFFF7D5FC401BEE
:100DA000B8424FF00300F3D96BE000BF56F80C1CBB
:100DB00056F80C2C01F4403102F07062D4E9013590
:100DC000114441EA831141EA057146F80C1C010304
:100DD0003FF564AFC1021DD5216CB1F5800F19D16B
:100DE00056F80C1C56F80C2C01F4403102F0E0428D
:100DF00063681144E26841EA8311656A41EA02616D
:100E000046F80C1C56F8041C6A1E21F01F01114301
:100E100046F8041CC10110D556F80C1C56F80C2CD1
:100E200001F0706102F0E04263682569114441EA13
:100E3000831141EA054146F80C1C80010CD560681D
:100E4000A368D4E90321090441EA801040EA026062
:100E500040EA037046F80C0C56F8900C40F08060A5
:100E600046F8900CFFF770FC054600BF56F8900C52
:100E700000013FF5D8AEFFF767FC401B6428F5D9A9
:100E8000032002B0BDE8F08700285FD02DE9F041D3
:100E900043F608080446C4F202080D46D8F8F803E1
:100EA00000F00F0088420DD2D8F8F80320F00F00B0
:100EB0002843C8F8F803D8F8F80300F00F00A84258
:100EC00040F0B8802068810717D5410705D5D8F8CC
:100ED000001041F4E051C8F80010010705D5D8F81A
:100EE000001041F46041C8F80010D8F80010A26862
:100EF00021F0F0011143C8F80010C00728D1D8F83C
:100F0000F80300F00F00A8420DD9D8F8F80320F03C
:100F10000F002843C8F8F803D8F8F80300F00F00D2
:100F2000A84240F08780206841071DD4000725D4DF
:100F3000D8F8000000F00C0008282ED004284FD16B
:100F400047F64000C0F27D104EE000BF0120704720
:100F50006068022862D0012868D158F8081C89030B
:100F60006CD40120BDE8F081D8F80010E26821F4CB
:100F7000E0511143C8F800100007D9D5D8F8000097
:100F8000216920F4604040EAC100C8F80000D8F8A8
:100F9000000000F00C000828D0D158F8042C58F8B4
:100FA000040C400247F6400058F8041CC0F27D10C3
:100FB0005CBF42F20040C0F2F400C1F3881102F0BD
:100FC0003F02A0FB01010023FFF784F958F8041C3D
:100FD0000222C1F3014102EB4101B0FBF1F003E059
:100FE00042F20040C0F2F400D8F8001042F2584239
:100FF000C0F60002C1F30311515C40F20402C2F2D8
:101000000002C84040F20801C2F200010860106806
:10101000FFF7BEFB0020BDE8F08100BF58F8081CB8
:1010200089010BD40120BDE8F08100BF58F8081CED
:10103000890703D40120BDE8F08100BFD8F8001073
:1010400021F003010843C8F80000FFF77DFB0646C6
:1010500041F28837D8F80000616800F00C00B0EB6E
:10106000810F3FF44CAFFFF76FFB801BB842F1D903
:101070000320BDE8F081000040F2080043F60801BB
:10108000C2F20000C4F2020142F26842006809683C
:10109000C0F60002C1F38221515CC84070470000D5
:1010A00040F2080043F60801C2F20000C4F2020157
:1010B00042F2684200680968C0F60002C1F342319A
:1010C000515CC8407047000010B543F60404C4F2F8
:1010D0000204606800F00C00082807D0042825D11D
:1010E00047F64000C0F27D1010BD00BF22682068A6
:1010F000400247F640002168C0F27D105CBF42F21A
:101100000040C0F2F400C1F3881102F03F02A0FBDE
:1011100001010023FFF7DEF821680222C1F301413B
:1011200002EB4101B0FBF1F010BD00BF42F2004004
:10113000C0F2F40010BD000000284FD02DE9F041AE
:1011400082B00446007843F60006C007C4F20206E7
:101150000CD0B06800F00C00042840F081803068AA
:10116000800303D56068002800F032812078800772
:101170001BD5B06810F00C0F09D0B06800F00C005F
:10118000082840F08B807068400200F1878030684A
:10119000800703D5E068012840F01A813068216992
:1011A00020F0F80040EAC10030602078000717D432
:1011B000207840072CD4A569002D00F00581B06887
:1011C00000F00C00082840F0A780012D706840F066
:1011D000D980012002B0BDE8F08100BF0120704736
:1011E00060690028706F00F0838040F00100706734
:1011F000FFF7AAFA054600BF706F8007D8D4FFF743
:10120000A3FA401B0228F7D9032002B0BDE8F08101
:10121000306C5FEAC00808D4306C40F08050306415
:10122000306C00F080500190019847F20007C4F242
:1012300000073868C00549D4386840F480703860C9
:10124000FFF782FA054600BF3868C0053ED4FFF7B5
:101250007BFA401B6428F7D9032002B0BDE8F08177
:10126000B06800F00C00082803D1706840023FF518
:1012700076AF6068002800F0ED80B0F5A02F00F098
:101280000181B0F5803F00F00181306820F48030AA
:101290003060306820F48020FBE000BFE068002868
:1012A00030685BD040F001003060FFF74DFA054632
:1012B000306880073FF572AFFFF746FA401B0228FF
:1012C000F6D9032002B0BDE8F08100BFA068002875
:1012D00000F08280052800F09980012800F09A80B3
:1012E000306F20F001003067306F20F0040094E090
:1012F00020F001007067FFF727FA0546706F80073E
:101300007FF556AFFFF720FA401B0228F6D90320DD
:1013100002B0BDE8F08100BF306820F0807030601E
:10132000FFF712FA022D05460CD100BF306880018C
:1013300040F1C280FFF708FA401B02284FF003007B
:10134000F4D91CE0306880013ED5FFF7FDF9401B61
:1013500002284FF00300F5D911E000BF20F0010092
:101360003060FFF7F1F90546306880077FF51DAF63
:10137000FFF7EAF9401B02284FF00300F4D902B04E
:10138000BDE8F08100F48001E269914220D100F0D3
:101390003F01226A91421BD147F6C071626A014047
:1013A000B1EB821F14D1A16A4FF6FF72C9039143BA
:1013B00000F44032A1F580318A4209D1E16A00F09F
:1013C0007060B0EB016F03D1002002B0BDE8F08186
:1013D000012002B0BDE8F081306F20F001003067DD
:1013E000306F20F004003067FFF7AEF9054641F298
:1013F000883700BF306F800722D5FFF7A5F9401B63
:10140000B8424FF00300F5D9B9E700BF306F40F0A4
:1014100004003067306F40F001003067FFF794F947
:10142000054641F2883700BF306F800708D4FFF7C8
:101430008BF9401BB842F7D9032002B0BDE8F08118
:10144000B8F1000F3FF5B7AE306C20F0805030643B
:10145000B1E600BF306820F480303060306820F49E
:1014600080203060FFF770F9054600BF30688003C8
:101470007FF57CAEFFF768F9401B64284FF003004E
:10148000F4D97CE7306840F480203060306840F464
:1014900080303060FFF758F9054600BF30688003A0
:1014A0003FF564AEFFF750F9401B6428F6D90320DE
:1014B00002B0BDE8F08100BF04F11C074FF6FF75D4
:1014C0008FCFDB03084323EA050140EA8210A1F530
:1014D000803140EA0760084340F000507060306897
:1014E00040F080703060FFF72FF9044630688001CB
:1014F0003FF56AAFFFF728F9001B02284FF0030001
:10150000F4D93CE700000000411E0020B0EB116F51
:1015100002D00120704700BF4EF21002F023CEF23D
:10152000000251604EF62351CEF200010B700721EC
:1015300090601160704700007047000000000000DC
:101540007047000000000000B0B50446006840F697
:101550002F02C169056801EA020305F0200E202B65
:10156000836809D1BEF1000F06D0A16E51B32046A9
:10157000BDE8B040084700BF40F60F02114209D055
:1015800040F2201203F0010CC0F200422A4012EB9C
:101590000C0225D1CA06236E16D5012B14D115F0E5
:1015A000100211D0102101628068400622D4B4F8E4
:1015B0005800B4F85A10B4F85A20002A18BF8842CC
:1015C00040F03682B0BD00BF080640F1D98015F06A
:1015D000800000F0D580E16E0029C8D1F2E700BF9D
:1015E000CA0718BF15F4807240F002818A0700F123
:1015F000098112E1606F016849688AB2002AE1D06E
:10160000B4F858309A42DDD2A4F85A10C069B0F547
:10161000807F00F0A880206850E8000F216820F447
:10162000807041E80002F2B1206850E8000F2168A4
:1016300020F4807041E80002002A1FBF206850E8B3
:10164000000F216820F480701CBF41E80002002ACE
:1016500009D0206850E8000F216820F4807041E82C
:101660000002002AD7D1206850E8020F216820F03C
:10167000010041E80202F2B1206850E8020F21683F
:1016800020F0010041E80202002A1FBF206850E854
:10169000020F216820F001001CBF41E80202002A6D
:1016A00009D0206850E8020F216820F0010041E8CD
:1016B0000202002AD7D1206850E8020F216820F0EA
:1016C000400041E80202F2B1206850E8020F2168B0
:1016D00020F0400041E80202002A1FBF206850E8C5
:1016E000020F216820F040001CBF41E80202002ADE
:1016F00009D0206850E8020F216820F0400041E83E
:101700000202002AD7D12020C4F8800000202066E1
:10171000206850E8000F216820F0100041E8000226
:10172000F2B1206850E8000F216820F0100041E875
:101730000002002A1FBF206850E8000F216820F037
:1017400010001CBF41E80002002A09D0206850E8C0
:10175000000F216820F0100041E80002002AD7D1D4
:10176000606FFEF799FE02206066B4F85800B4F886
:101770005A10401A81B22046BDE8B040FFF7DCBEE7
:1017800048067FF51FAF15F0400008BFB0BD2068C8
:1017900050E8000F216820F0400041E80002F2B15B
:1017A000206850E8000F216820F0400041E8000266
:1017B000002A1FBF206850E8000F216820F0400079
:1017C0001CBF41E80002002A09D0206850E8000F41
:1017D000216820F0400041E80002002AD7D12020F3
:1017E000E0670020E0662046BDE8B04000F048BA5F
:1017F00001220262D4F8842042F00102C4F884205D
:101800008A070AD5BCF1000F07D002220262D4F881
:10181000842042F00402C4F884204A070AD5BCF1AF
:10182000000F07D004220262D4F8842042F00202A2
:10183000C4F884200A070AD55CEA0E0207D0082201
:101840000262D4F8842042F00802C4F884200A0519
:101850000BD515F0806208D04FF400620262D4F814
:10186000842042F02002C4F88420D4F88420002A86
:101870003FF4A8AE890607D5BEF1000F04D0A16ED3
:1018800011B1204688472068D4F88410806800F0A1
:10189000400001F02801401806D12046FFF750FE15
:1018A0000020C4F88400B0BD206850E8000F216813
:1018B00020F4907041E80002F2B1206850E8000F77
:1018C000216820F4907041E80002002A1FBF2068C0
:1018D00050E8000F216820F490701CBF41E800021E
:1018E000002A09D0206850E8000F216820F4907089
:1018F00041E80002002AD7D1206850E8020F216891
:1019000020F0010041E80202F2B1206850E8020F25
:10191000216820F0010041E80202002A1FBF206870
:1019200050E8020F216820F001001CBF41E80202CC
:10193000002A09D0206850E8020F216820F0010039
:1019400041E80202002AD7D1206E012827D1206861
:1019500050E8000F216820F0100041E80002F2B1C9
:10196000206850E8000F216820F0100041E80002D4
:10197000002A1FBF206850E8000F216820F01000E7
:101980001CBF41E80002002A09D0206850E8000F7F
:10199000216820F0100041E80002002AD7D1202061
:1019A000C4F88000002020662168A0668868400690
:1019B00038D5206850E8020F216820F0400041E847
:1019C0000202F2B1206850E8020F216820F04000C6
:1019D00041E80202002A1FBF206850E8020F216878
:1019E00020F040001CBF41E80202002A09D0206814
:1019F00050E8020F216820F0400041E80202002A6E
:101A0000D7D1606F70B141F6B961C0F600010165D0
:101A1000FEF78AFD00283FF4D5AD606F016DBDE88B
:101A2000B04008472046BDE8B040FFF789BD00BF81
:101A3000401A216851E8001F226821F4907142E8A1
:101A40000013F3B1216851E8001F226821F490715E
:101A500042E80013002B1FBF216851E8001F2268D5
:101A600021F490711CBF42E80013002B09D02168BB
:101A700051E8001F226821F4907142E80013002B06
:101A8000D7D1216851E8021F226821F0010142E804
:101A90000213F3B1216851E8021F226821F001010D
:101AA00042E80213002B1FBF216851E8021F226881
:101AB00021F001011CBF42E80213002B09D021686C
:101AC00051E8021F226821F0010142E80213002BB5
:101AD000D7D12021C4F8801000212166A166216899
:101AE00051E8001F226821F0100142E80013F3B111
:101AF000216851E8001F226821F0100142E800131C
:101B0000002B1FBF216851E8001F226821F010013F
:101B10001CBF42E80013002B09D0216851E8001FC8
:101B2000226821F0100142E80013002BD7D181B2C6
:101B3000022060662046BDE8B040FFF7FDBC000013
:101B4000B0B582B098B10446C06F28B9002084F8BF
:101B50007800204600F048F82420E06720680168FB
:101B600021F001010160204600F0AEF920B101250D
:101B7000284602B0B0BD00BF606A10B1204600F038
:101B80002BF920680025416821F49041416081686B
:101B900021F02A018160016841F001010160C4F86F
:101BA0008450FEF7D1FD2168096809070ED5034668
:101BB0004FF4001100226FF07E400090204600F0AC
:101BC000A3FA18B10325284602B0B0BD2020E06773
:101BD000C4F880002566656684F87850284602B00F
:101BE000B0BD000000000000B0B5A6B004466846D5
:101BF00041F2004504308021C4F20105FEF7E2FB0A
:101C00002068A84202D026B0B0BD00BF4FF40060EB
:101C100000906846FEF788FE08B1FEF739FC43F6EF
:101C20003000C4F20200416941F020014161416984
:101C300001F0200121912199016841F00401016026
:101C4000006821A900F0040021902198C020219073
:101C50000220229000202390032024900820259029
:101C600005F57440FEF788FC472002210222FEF7AA
:101C7000DFFD4720FEF7CCFD26B0B0BD0000000020
:101C80007047000000000000FEE7000000000000B8
:101C90002DE9F04786B043F630004FF00008C4F25B
:101CA0000200CDF8148040F6004401220168C4F21D
:101CB000020441F010010160016804F5806501F043
:101CC000100100910099016841F001010160016873
:101CD000082601F0010100910099016841F0080116
:101CE000016001684FF0010A01F0080100910099BC
:101CF000016841F080010160016801F080010091FC
:101D00000099016841F0040101600068082100F0B9
:101D10000400009000982846FEF70EFD10210122D5
:101D200020464FF01009FEF707FDCDE9016A01AE2C
:101D300028463146CDF80C8002270497FEF71CFC9C
:101D400020463146CDE9019ACDE90387FEF714FC20
:101D500006B0BDE8F087000080B540F2700041F2A7
:101D60000041C2F20000C4F201010C2201604FF4F4
:101D7000E13141600021C0E902110161C0E90521A2
:101D8000C0E907114162FFF7DBFE002808BF80BDF4
:101D9000BDE88040FEF77CBBFEE7000000000000CD
:101DA000FEE7000000000000704700000000000097
:101DB0007047000000000000FEF7CEBC00000000ED
:101DC0004EF68850CEF20000016841F470010160C7
:101DD0007047000000000000416ACA070CD18A0762
:101DE00015D44A071ED40A0727D4CA0630D48A0657
:101DF00039D44A0642D454E00268D0F828C0536867
:101E000023F4003343EA0C0353608A07E9D50268E0
:101E1000D0F82CC0536823F4803343EA0C0353609A
:101E20004A07E0D50268D0F830C0536823F4802315
:101E300043EA0C0353600A07D7D50268D0F834C0D0
:101E4000536823F4004343EA0C035360CA06CED51B
:101E50000268D0F838C0936823F4805343EA0C0337
:101E600093608A06C5D50268D0F83CC0936823F415
:101E7000005343EA0C0393604A0612D50268D0F877
:101E800040C05368BCF5801F23F4801343EA0C0361
:101E9000536006D1536823F4C00C436C43EA0C032F
:101EA0005360090658BF70470168806C4A6822F485
:101EB0000022104348607047806B0021A0F85A1040
:101EC000A0F85210FFF73CBB70B506460168806869
:101ED00046F6F315D6E9033202437069D6F81CC002
:101EE0000C68CEF6FF75104304EA0502104340EA81
:101EF0000C000860486820F4405018434860B069FE
:101F000047F2FF73326AC4F2000310438A6822F476
:101F10003062994240EA02004FF01002886019DCFA
:101F200044F6FF30C4F2000081422DDC44F2004050
:101F3000C4F2000081424DD044F60000C4F200001B
:101F4000814271D143F69000C4F202000068010999
:101F500056E000BF40F6FF70C4F20100814227DC6A
:101F600047F60000C4F2000081423BD047F6004033
:101F7000C4F20000814257D143F69000C4F202003F
:101F80000068810B3CE000BF44F60040C4F2000052
:101F900081422FD045F20000C4F20000814243D1BB
:101FA00043F69000C4F202000068010A28E000BF76
:101FB00041F20040C4F20100814227D041F200000A
:101FC000C4F2010081422FD143F69000C4F2020016
:101FD000016821E043F69000C4F202000068810825
:101FE0000EE000BF43F69000C4F202000068010B4F
:101FF00006E000BF43F69000C4F2020000688109C9
:1020000042F28042C0F600020AE000BF43F69000B0
:10201000C4F202000068810A42F27042C0F6000277
:1020200001F0030052F8202042F20040BCF5004FBE
:10203000C0F2F4000ED1082A4FF0010139D8DFE8D0
:1020400002F0051923381D3838382100FFF714F83D
:10205000D0B94AE0082A4FF001012AD8DFE802F09F
:10206000062E382932292929360000BFFFF704F847
:1020700070BB3AE0FFF714F830B936E0FFF724F808
:1020800010B932E04FF4004071684A0802EB40009A
:102090004FF6EF72B0FBF1F0A0F11001914207D8BA
:1020A0004FF6F0710140C0F3420008441BE000BF4E
:1020B00001210020C6E91A00084670BDFEF7F0FFB6
:1020C00030B912E0FFF700F810B90EE04FF400400D
:1020D00071684FF6EF7200EB5100B0FBF1F0A0F128
:1020E0001001914208D83168C86000210020C6E97B
:1020F0001A00084670BD00BF01210020C6E91A0081
:10210000084670BD000000002DE9F041044600685B
:102110000D46C7693940491BB1FA81F1490991421D
:1021200040F0A380DDF81880B8F1000F28D01646E3
:1021300018F1010140F08280C1692940491BB1FAC0
:1021400081F14909B14240F09080C1692940491BA1
:10215000B1FA81F14909B14201BFC1692940491B66
:10216000B1FA81F104BF4909B14240F07E80C169F2
:102170002940491BB1FA81F14909B142DCD074E030
:10218000FEF7E2FA206850E8000F216820F4D070D2
:1021900041E80002F2B1206850E8000F216820F405
:1021A000D07041E80002002A1FBF206850E8000FED
:1021B000216820F4D0701CBF41E80002002A09D039
:1021C000206850E8000F216820F4D07041E8000238
:1021D000002AD7D1206850E8020F216820F00100C2
:1021E00041E80202F2B1206850E8020F216820F0B5
:1021F000010041E80202002A1FBF206850E8020FD8
:10220000216820F001001CBF41E80202002A09D029
:10221000206850E8020F216820F0010041E8020226
:10222000002AD7D12020E06704F18000202101603E
:10223000002084F878000320BDE8F0811F4600BF2D
:10224000FEF782FAC01B40459CD820680168490708
:1022500044BFC1695FEA01510AD4C0692840401BEC
:10226000B0FA80F04009B042EAD00020BDE8F08129
:102270004FF400610162206850E8000F216820F4EB
:10228000D07041E80002F2B1206850E8000F2168E8
:1022900020F4D07041E80002002A1FBF206850E8F7
:1022A000000F216820F4D0701CBF41E80002002A12
:1022B00009D0206850E8000F216820F4D07041E870
:1022C0000002002AD7D1206850E8020F216820F0D0
:1022D000010041E80202F2B1206850E8020F2168D3
:1022E00020F0010041E80202002A1FBF206850E8E8
:1022F000020F216820F001001CBF41E80202002A01
:1023000009D0206850E8020F216820F0010041E860
:102310000202002AD7D12020E067C4F8800004F12F
:10232000840083E70000000040F27000C2F2000069
:10233000FFF70AB900000000FEE7000000000000FF
:1023400080B592B000200590CDE90A00CDE90800E3
:10235000CDE90300CDE9010043F64000C4F20200DC
:10236000016841F080510160006800F080500090E9
:1023700047F200000099C4F20000016841F44041B6
:10238000016000684FF4800100F440400090009824
:10239000012006904FF48030079002200C900D91A0
:1023A00019210E914FF4D871CDE90F10119006A8A4
:1023B000FEF7C2FED0B9FEF77BFAD8B90F20019024
:1023C00002200290002003904FF4A05004904FF49C
:1023D0008050059001A80721FEF756FD002804BF94
:1023E00012B080BDEFF3108072B600BFEFF3108023
:1023F00072B600BFEFF3108072B60000000000005C
:10240000704700000000000040F60044C4F20204DF
:10241000FEF7B2F9FFF794FFFFF73AFCFFF79CFCD9
:1024200004F5806510212046FEF77EF90821284634
:10243000FEF77AF94FF4FA70FEF78AF8F2E7F1EE58
:10244000100A4FF6FF71C0F2C03120EA010040F0DF
:102450004070E1EE100A704700000000000000002C
:10246000010203040607080900000000010203043A
:10247000010000000400000002000000080000004D
:10248000000000000400000002000000080000003E
:10249000B024000800000020100000002C020008FA
:1024A000C024000810000020F00600004C020008C4
:1024B00001000000100000000024F40000000000F3
:04000005080001C925
:00000001FF
