:020000040800F2
:10000000000700209502000889150008B1140008B7
:100010008115000831040008E11500080000000007
:10002000000000000000000000000000991500081A
:10003000390400080000000091150008A11500080F
:10004000AF020008AF020008AF020008AF020008CC
:10005000AF020008AF020008AF020008AF020008BC
:10006000AF020008AF020008AF020008AF020008AC
:10007000AF020008AF020008AF020008AF0200089C
:10008000AF020008AF020008AF020008AF0200088C
:10009000AF020008AF020008AF020008AF0200087C
:1000A000AF020008AF020008AF020008AF0200086C
:1000B000AF020008AF020008AF020008AF0200085C
:1000C000AF020008AF020008AF020008AF0200084C
:1000D000AF020008AF020008AF020008AF0200083C
:1000E000AF020008AF020008AF020008AF0200082C
:1000F000AF020008AF020008AF020008AF0200081C
:10010000AF020008AF020008AF020008AF0200080B
:10011000AF020008AF020008AF020008AF020008FB
:10012000AF020008AF020008AF020008AF020008EB
:10013000AF020008AF020008AF020008AF020008DB
:10014000AF020008AF020008AF020008AF020008CB
:10015000AF020008AF020008AF020008D115000886
:10016000AF020008AF020008AF020008AF020008AB
:10017000AF020008AF020008AF0200080000000054
:10018000AF020008AF020008AF020008AF0200088B
:10019000AF020008AF020008AF020008AF0200087B
:1001A000AF020008AF020008AF020008AF0200086B
:1001B000AF020008AF020008AF020008AF0200085B
:1001C000AF020008AF02000800F002F800F052F899
:1001D00014A696E8000CB244B344DA4501D100F00D
:1001E00049F8BAE80F000FA696E83000A5EB040521
:1001F00004EB0607AAEB0704A7F101074FEA151560
:100200004FEA3414A4F10104AC4201D300F032F8F7
:1002100013F0010F18BFFB1A43F0010300F001F8BF
:10022000DBE71847E814000008150000103A24BF67
:1002300078C878C1FAD8520724BF30C830C144BF4B
:1002400004680C6070470000704700000023002421
:1002500000250026103A28BF78C1FBD8520728BFD6
:1002600030C148BF0B6070471FB501F03AFA1FBD9F
:1002700010B510BD00F0A9F81146FFF7F5FF01F029
:1002800017FA00F0C7F803B4FFF7F2FF03BC01F060
:100290000BFA00000948804709480047FEE7FEE7DF
:1002A000FEE7FEE7FEE7FEE7FEE7FEE7FEE7FEE726
:1002B00004480549054A064B70470000A915000887
:1002C000C9010008000100200007002000030020F1
:1002D0000003002053EA020C00F069802DE9F04B86
:1002E0004FF00006002B1FBFB3FA83F503FA05F4A5
:1002F00024FA05F65E4012BF1643B2FA82F502FAFE
:1003000005F4C5F120051EBF22FA05FC44EA0C04E1
:10031000203556EA044C4FEA144418BF641C4FF0D1
:1003200000084FF00009904271EB030C39D300290B
:1003300019BFB1FA81F701FA07F6B0FA80F700FAAF
:1003400007F6C7F120071EBF20FA07FC46EA0C0695
:100350002037B6FBF4FCA7EB0507103F07F01F0B97
:10036000CBF120062CFA06F60CFA0BFB44BFB34681
:100370000026202FA4BF5E464FF0000B5BEA060C60
:1003800008BF4FF0010B19EB0B0948EB0608ABFB5C
:10039000027C06FB02CC0BFB03CCC01B71EB0C01F7
:1003A000C1E70B46024641464846BDE8F08B13B50F
:1003B000084318BF4FF0FF300146AFF30080BDE89F
:1003C0001C407047704770477047754600F02CF826
:1003D000AE4605006946534620F00700854618B032
:1003E00020B5FFF765FFBDE820404FF000064FF055
:1003F00000074FF000084FF0000BAC46ACE8C00916
:10040000ACE8C009ACE8C009ACE8C00921F00701BC
:100410008D46704710B50446AFF300802046BDE816
:100420001040FFF730BF0000004870471000002068
:10043000FEE7000000000000704700000000000020
:1004400070B50446866D00F053F994F83510022912
:1004500028D105462068216C0268002922F0160286
:100460000260426922F08001416101D1A16C19B1A1
:10047000016821F008010160016821F001010160BB
:1004800020680068C00715D000F032F9401B06282C
:10049000F6D320206065032084F83500002184F81D
:1004A000341070BD802060650120002184F8341074
:1004B00070BD00BFE06D3F2101FA00F0B060012087
:1004C00084F835000020002184F8341070BD00004D
:1004D00090F83510022909D1052180F835100068FF
:1004E000016821F001010160002070478021416511
:1004F0000120704700000000B0B5044600F0F8F895
:1005000040F200010546C2F20001621C097818BFE2
:100510000C4400BF00F0ECF8401BA042FAD3B0BD81
:100520002DE9F04F82B000F13E4342F2004603F164
:10053000FF738705C4F202060A22B04247EA9327F6
:1005400008BF0922092F4FF0000E38BF3A46012498
:1005500000270026009206E001360237102E0EF129
:10056000040E00F0AF8004FA06FB0D6815EA0B08D4
:10057000F2D0D1F804A003220AF0030CBA40ACF187
:1005800001056FEA0209012D10D88268CD6802EAE0
:100590000902BD402A438260CAF30015426822EA7C
:1005A0000B02B5402A43426006E000BFBCF1030FD6
:1005B00002D14FF0030C22E0C2688D6802EA090202
:1005C000BD40BCF1020F42EA0502C26017D16FF0D4
:1005D00003020EF01C0302EA56020F25024405FA3C
:1005E00003FAD2F820C00D692CEA0A0C05FA03F3CD
:1005F00043EA0C031362D1F804A00AF0030C02686A
:100600000CFA07F302EA09021AF4403F42EA030235
:100610000260A1D043F6440343F60049C4F202034A
:10062000C4F201094FF6084A0F241A68CFF6FF7A80
:1006300042F480421A601A6826F0030302F48042F2
:10064000019209EB0302019B0EF00C0352F80AC061
:1006500004FA03F5009C2CEA050504FA03F32B4386
:1006600042F80A30D9F808C04B684CEA0805DA02AB
:1006700058BF2CEA080543F60C4C9C02C4F2010C4E
:10068000C9F80850DCF8002042EA080558BF22EA01
:1006900008059C034FF00104CCF80050D9F8042061
:1006A00042EA080558BF22EA0805DB03C9F80450EE
:1006B000D9F8002042EA080558BF22EA0805C9F81F
:1006C000005049E702B0BDE8F08F000000000000D4
:1006D000426902EA0103914341EA034181617047A3
:1006E000002A08BF09048161704700000000000073
:1006F00040F2F800C2F200000068704700000000FD
:1007000040F2000040F2F801C2F20000C2F2000123
:1007100000780A681044086070470000000000007C
:1007200080B5032000F078F8002000F005F800F014
:1007300027F8002080BD000070B540F2000640F2AE
:100740000801C2F20006C2F200014FF47A730446B7
:1007500032780968B3FBF2F2B1FBF2F1084600F01F
:1007600087FB0F2C4FF0010508D838B94FF0FF3048
:1007700000222146002500F01FF87460284670BD55
:1007800082B043F64000C4F20200016841F080519B
:100790000160016801F0805101910199416841F4C3
:1007A00080414160406800F480400090052000993D
:1007B00002B000F031B8000070B54EF60C5C4FF09E
:1007C000FF36CEF2000C00F1604505F56445DCF81B
:1007D0000030C3F3022E8EF00703042B28BF04233E
:1007E000BEF1030406FA03F321EA030100F00F034C
:1007F00038BF0024043B0028634406FA04F048BFD5
:1008000003F10C05A14022EA000008430001287012
:1008100070BD0000000000004EF60C514FF6FF03C3
:10082000CEF200010A681A4060F30A2242F08060AA
:1008300040F0FD7008607047B0B582B043F64000EC
:1008400047F20005C4F20200C4F20005016841F05D
:1008500080510160006800F0805001900198286884
:1008600040F480302860FFF743FF04466868C00307
:1008700006D4FFF73DFF001BB0F57A7FF6D910E0F4
:10088000286840F400302860FFF732FF044600BFBC
:100890006868800308D4FFF72BFF001BB0F57A7F50
:1008A000F6D9032002B0B0BD002002B0B0BD0000F8
:1008B00000285FD02DE9F04143F608080446C4F251
:1008C00002080D46D8F8F80300F00F0088420DD258
:1008D000D8F8F80320F00F002843C8F8F803D8F838
:1008E000F80300F00F00A84240F0B88020688107AC
:1008F00017D5410705D5D8F8001041F4E051C8F8E4
:100900000010010705D5D8F8001041F46041C8F87F
:100910000010D8F80010A26821F0F0011143C8F8C7
:100920000010C00728D1D8F8F80300F00F00A84243
:100930000DD9D8F8F80320F00F002843C8F8F803C1
:10094000D8F8F80300F00F00A84240F08780206834
:1009500041071DD4000725D4D8F8000000F00C0092
:1009600008282ED004284FD147F64000C0F27D1051
:100970004EE000BF012070476068022862D0012865
:1009800068D158F8081C89036CD40120BDE8F081B7
:10099000D8F80010E26821F4E0511143C8F80010C3
:1009A0000007D9D5D8F80000216920F4604040EA5A
:1009B000C100C8F80000D8F8000000F00C000828BA
:1009C000D0D158F8042C58F8040C400247F64000E7
:1009D00058F8041CC0F27D105CBF42F20040C0F227
:1009E000F400C1F3881102F03F02A0FB01010023D3
:1009F000FFF770FC58F8041C0222C1F3014102EB1E
:100A00004101B0FBF1F003E042F20040C0F2F4001B
:100A1000D8F8001041F2FC62C0F60002C1F30311E5
:100A2000515C40F20402C2F20002C84040F20801E8
:100A3000C2F2000108601068FFF77EFE0020BDE8EA
:100A4000F08100BF58F8081C89010BD40120BDE8D3
:100A5000F08100BF58F8081C890703D40120BDE8C5
:100A6000F08100BFD8F8001021F003010843C8F856
:100A70000000FFF73DFE064641F28837D8F8000037
:100A8000616800F00C00B0EB810F3FF44CAFFFF752
:100A90002FFE801BB842F1D90320BDE8F081000091
:100AA00000284FD02DE9F04182B00446007843F68B
:100AB0000006C007C4F202060CD0B06800F00C00BB
:100AC000042840F081803068800303D560680028E6
:100AD00000F03281207880071BD5B06810F00C0F31
:100AE00009D0B06800F00C00082840F08B807068D6
:100AF000400200F187803068800703D5E068012854
:100B000040F01A813068216920F0F80040EAC10005
:100B100030602078000717D4207840072CD4A569CE
:100B2000002D00F00581B06800F00C00082840F0AE
:100B3000A780012D706840F0D980012002B0BDE887
:100B4000F08100BF0120704760690028706F00F0DD
:100B5000838040F001007067FFF7CAFD054600BFC3
:100B6000706F8007D8D4FFF7C3FD401B0228F7D968
:100B7000032002B0BDE8F081306C5FEAC00808D401
:100B8000306C40F080503064306C00F08050019048
:100B9000019847F20007C4F200073868C00549D43D
:100BA000386840F480703860FFF7A2FD054600BF4A
:100BB0003868C0053ED4FFF79BFD401B6428F7D979
:100BC000032002B0BDE8F081B06800F00C000828F6
:100BD00003D1706840023FF576AF6068002800F0EE
:100BE000ED80B0F5A02F00F00181B0F5803F00F05E
:100BF0000181306820F480303060306820F480203B
:100C0000FBE000BFE068002830685BD040F00100E6
:100C10003060FFF76DFD0546306880073FF572AF25
:100C2000FFF766FD401B0228F6D9032002B0BDE89D
:100C3000F08100BFA068002800F08280052800F045
:100C40009980012800F09A80306F20F00100306711
:100C5000306F20F0040094E020F001007067FFF78F
:100C600047FD0546706F80077FF556AFFFF740FDE3
:100C7000401B0228F6D9032002B0BDE8F08100BF76
:100C8000306820F080703060FFF732FD022D05469D
:100C90000CD100BF3068800140F1C280FFF728FD11
:100CA000401B02284FF00300F4D91CE0306880019B
:100CB0003ED5FFF71DFD401B02284FF00300F5D97C
:100CC00011E000BF20F001003060FFF711FD054684
:100CD000306880077FF51DAFFFF70AFD401B022833
:100CE0004FF00300F4D902B0BDE8F08100F48001B8
:100CF000E269914220D100F03F01226A91421BD16A
:100D000047F6C071626A0140B1EB821F14D1A16A3B
:100D10004FF6FF72C903914300F44032A1F58031D0
:100D20008A4209D1E16A00F07060B0EB016F03D133
:100D3000002002B0BDE8F081012002B0BDE8F081E2
:100D4000306F20F001003067306F20F00400306712
:100D5000FFF7CEFC054641F2883700BF306F8007B1
:100D600022D5FFF7C5FC401BB8424FF00300F5D970
:100D7000B9E700BF306F40F004003067306F40F0DB
:100D800001003067FFF7B4FC054641F2883700BF29
:100D9000306F800708D4FFF7ABFC401BB842F7D98F
:100DA000032002B0BDE8F081B8F1000F3FF5B7AE07
:100DB000306C20F080503064B1E600BF306820F421
:100DC00080303060306820F480203060FFF790FC85
:100DD000054600BF306880037FF57CAEFFF788FCD6
:100DE000401B64284FF00300F4D97CE7306840F4DE
:100DF00080203060306840F480303060FFF778FC4D
:100E0000054600BF306880033FF564AEFFF770FC15
:100E1000401B6428F6D9032002B0BDE8F08100BF72
:100E200004F11C074FF6FF758FCFDB03084323EA5D
:100E3000050140EA8210A1F5803140EA07600843CD
:100E400040F000507060306840F080703060FFF714
:100E50004FFC0446306880013FF56AAFFFF748FC5D
:100E6000001B02284FF00300F4D93CE7000000000B
:100E7000411E0020B0EB116F02D00120704700BF6F
:100E80004EF21002F023CEF2000251604EF62351D2
:100E9000CEF200010B7007219060116070470000D6
:100EA00070470000000000007047000000000000D4
:100EB000B0B50446006840F62F02C169056801EA32
:100EC000020305F0200E202B836809D1BEF1000F2C
:100ED00006D0A16E51B32046BDE8B040084700BF20
:100EE00040F60F02114209D040F2201203F0010C2B
:100EF000C0F200422A4012EB0C0225D1CA06236E32
:100F000016D5012B14D115F0100211D01021016259
:100F10008068400622D4B4F85800B4F85A10B4F8E7
:100F20005A20002A18BF884240F03682B0BD00BF68
:100F3000080640F1D98015F0800000F0D580E16E00
:100F40000029C8D1F2E700BFCA0718BF15F48072A4
:100F500040F002818A0700F1098112E1606F0168A7
:100F600049688AB2002AE1D0B4F858309A42DDD2FA
:100F7000A4F85A10C069B0F5807F00F0A8802068FE
:100F800050E8000F216820F4807041E80002F2B1BF
:100F9000206850E8000F216820F4807041E80002CA
:100FA000002A1FBF206850E8000F216820F48070DD
:100FB0001CBF41E80002002A09D0206850E8000F59
:100FC000216820F4807041E80002002AD7D120680F
:100FD00050E8020F216820F0010041E80202F2B15E
:100FE000206850E8020F216820F0010041E8020269
:100FF000002A1FBF206850E8020F216820F001007E
:101000001CBF41E80202002A09D0206850E8020F04
:10101000216820F0010041E80202002AD7D12068AF
:1010200050E8020F216820F0400041E80202F2B1CE
:10103000206850E8020F216820F0400041E80202D9
:10104000002A1FBF206850E8020F216820F04000EE
:101050001CBF41E80202002A09D0206850E8020FB4
:10106000216820F0400041E80202002AD7D1202068
:10107000C4F8800000202066206850E8000F216836
:1010800020F0100041E80002F2B1206850E8000FA3
:10109000216820F0100041E80002002A1FBF2068EC
:1010A00050E8000F216820F010001CBF41E800024A
:1010B000002A09D0206850E8000F216820F01000B5
:1010C00041E80002002AD7D1606FFFF7B9F902208A
:1010D0006066B4F85800B4F85A10401A81B220463D
:1010E000BDE8B040FFF7DCBE48067FF51FAF15F046
:1010F000400008BFB0BD206850E8000F216820F014
:10110000400041E80002F2B1206850E8000F216879
:1011100020F0400041E80002002A1FBF206850E88C
:10112000000F216820F040001CBF41E80002002AA7
:1011300009D0206850E8000F216820F0400041E805
:101140000002002AD7D12020E0670020E066204678
:10115000BDE8B04000F0A8B901220262D4F88420B2
:1011600042F00102C4F884208A070AD5BCF1000FBE
:1011700007D002220262D4F8842042F00402C4F8AC
:1011800084204A070AD5BCF1000F07D0042202626E
:10119000D4F8842042F00202C4F884200A070AD559
:1011A0005CEA0E0207D008220262D4F8842042F0E2
:1011B0000802C4F884200A050BD515F0806208D017
:1011C0004FF400620262D4F8842042F02002C4F896
:1011D0008420D4F88420002A3FF4A8AE890607D5DD
:1011E000BEF1000F04D0A16E11B1204688472068DF
:1011F000D4F88410806800F0400001F02801401805
:1012000006D12046FFF750FE0020C4F88400B0BD90
:10121000206850E8000F216820F4907041E8000237
:10122000F2B1206850E8000F216820F4907041E886
:101230000002002A1FBF206850E8000F216820F438
:1012400090701CBF41E80002002A09D0206850E8D5
:10125000000F216820F4907041E80002002AD7D1E5
:10126000206850E8020F216820F0010041E80202E6
:10127000F2B1206850E8020F216820F0010041E837
:101280000202002A1FBF206850E8020F216820F0E8
:1012900001001CBF41E80202002A09D0206850E882
:1012A000020F216820F0010041E80202002AD7D194
:1012B000206E012827D1206850E8000F216820F017
:1012C000100041E80002F2B1206850E8000F2168E8
:1012D00020F0100041E80002002A1FBF206850E8FB
:1012E000000F216820F010001CBF41E80002002A16
:1012F00009D0206850E8000F216820F0100041E874
:101300000002002AD7D12020C4F8800000202066E7
:101310002168A0668868400638D5206850E8020F2A
:10132000216820F0400041E80202F2B1206850E854
:10133000020F216820F0400041E80202002A1FBF8E
:10134000206850E8020F216820F040001CBF41E8EF
:101350000202002A09D0206850E8020F216820F01C
:10136000400041E80202002AD7D1606F70B141F21B
:10137000C151C0F600010165FFF7AAF800283FF44B
:10138000D5AD606F016DBDE8B04008472046BDE8AF
:10139000B040FFF789BD00BF401A216851E8001F27
:1013A000226821F4907142E80013F3B1216851E8FA
:1013B000001F226821F4907142E80013002B1FBF28
:1013C000216851E8001F226821F490711CBF42E897
:1013D0000013002B09D0216851E8001F226821F476
:1013E000907142E80013002BD7D1216851E8021F09
:1013F000226821F0010142E80213F3B1216851E8AB
:10140000021F226821F0010142E80213002B1FBFD6
:10141000216851E8021F226821F001011CBF42E847
:101420000213002B09D0216851E8021F226821F025
:10143000010142E80213002BD7D12021C4F880100B
:1014400000212166A166216851E8001F226821F071
:10145000100142E80013F3B1216851E8001F22682F
:1014600021F0100142E80013002B1FBF216851E852
:10147000001F226821F010011CBF42E80013002B5E
:1014800009D0216851E8001F226821F0100142E8CC
:101490000013002BD7D181B2022060662046BDE840
:1014A000B040FFF7FDBC00007047000000000000E6
:1014B000FEE70000000000002DE9F04786B043F68B
:1014C00030004FF00008C4F20200CDF8148040F65E
:1014D000004401220168C4F2020441F010010160DD
:1014E000016804F5806501F0100100910099016820
:1014F00041F0010101600168082601F0010100913D
:101500000099016841F00801016001684FF0010A8B
:1015100001F0080100910099016841F0800101602B
:10152000016801F0800100910099016841F0040117
:1015300001600068082100F004000090009828462F
:10154000FFF7CEF81021012220464FF01009FFF7D7
:10155000C7F8CDE9016A01AE28463146CDF80C80C6
:1015600002270497FEF7DCFF20463146CDE9019AB9
:10157000CDE90387FEF7D4FF06B0BDE8F087000091
:10158000FEE7000000000000FEE700000000000091
:1015900070470000000000007047000000000000DD
:1015A000FFF7AEB8000000004EF68850CEF2000003
:1015B000016841F470010160704700000000000004
:1015C000806B0021A0F85A10A0F85210FFF76CBCF5
:1015D00040F27000C2F20000FFF76ABC0000000099
:1015E000FEE700000000000080B592B000200590EA
:1015F000CDE90A00CDE90800CDE90300CDE90100FD
:1016000043F64000C4F20200016841F080510160DD
:10161000006800F08050009047F200000099C4F28A
:101620000000016841F44041016000684FF480010E
:1016300000F4404000900098012006904FF4803064
:10164000079002200C900D9119210E914FF4D87142
:10165000CDE90F10119006A8FFF722FAD0B9FFF7D5
:10166000EBF8D8B90F2001900220029000200390DF
:101670004FF4A05004904FF48050059001A807212A
:10168000FFF716F9002804BF12B080BDEFF31080F9
:1016900072B600BFEFF3108072B600BFEFF3108098
:1016A00072B600000000000070470000000000005B
:1016B00040F60044C4F20204FFF732F8FFF794FF4B
:1016C000FFF7FAFE04F5806510212046FFF700F8C9
:1016D00008212846FEF7FCFF4FF4FA70FEF70CFFD6
:1016E000F2E7F1EE100A4FF6FF71C0F2C03120EAC6
:1016F000010040F04070E1EE100A70470000000069
:101700000000000001020304060708093017000862
:1017100000000020100000002C0200084017000804
:1017200010000020F00600004C020008000000003D
:1017300001000000100000000024F4000000000080
:04000005080001C925
:00000001FF
